{
	"contracts/KYC.sol": {
		"kyc": {
			"abi": [
				{
					"inputs": [],
					"stateMutability": "nonpayable",
					"type": "constructor"
				},
				{
					"inputs": [
						{
							"internalType": "address",
							"name": "",
							"type": "address"
						}
					],
					"name": "KYCrecords",
					"outputs": [
						{
							"internalType": "string",
							"name": "name",
							"type": "string"
						},
						{
							"internalType": "enum kyc.KYCStatus",
							"name": "status",
							"type": "uint8"
						}
					],
					"stateMutability": "view",
					"type": "function"
				},
				{
					"inputs": [
						{
							"internalType": "address",
							"name": "_user",
							"type": "address"
						}
					],
					"name": "RejectKYC",
					"outputs": [],
					"stateMutability": "nonpayable",
					"type": "function"
				},
				{
					"inputs": [
						{
							"internalType": "address",
							"name": "_user",
							"type": "address"
						}
					],
					"name": "approveKYC",
					"outputs": [],
					"stateMutability": "nonpayable",
					"type": "function"
				},
				{
					"inputs": [],
					"name": "owner",
					"outputs": [
						{
							"internalType": "address",
							"name": "",
							"type": "address"
						}
					],
					"stateMutability": "view",
					"type": "function"
				},
				{
					"inputs": [
						{
							"internalType": "string",
							"name": "name",
							"type": "string"
						}
					],
					"name": "submitKYC",
					"outputs": [],
					"stateMutability": "nonpayable",
					"type": "function"
				}
			],
			"devdoc": {
				"kind": "dev",
				"methods": {},
				"version": 1
			},
			"evm": {
				"assembly": "    /* \"contracts/KYC.sol\":60:798  contract kyc{... */\n  mstore(0x40, 0x80)\n    /* \"contracts/KYC.sol\":302:352  constructor(){... */\n  callvalue\n  dup1\n  iszero\n  tag_1\n  jumpi\n  0x00\n  dup1\n  revert\ntag_1:\n  pop\n    /* \"contracts/KYC.sol\":332:342  msg.sender */\n  caller\n    /* \"contracts/KYC.sol\":326:331  owner */\n  0x00\n  dup1\n    /* \"contracts/KYC.sol\":326:342  owner=msg.sender */\n  0x0100\n  exp\n  dup2\n  sload\n  dup2\n  0xffffffffffffffffffffffffffffffffffffffff\n  mul\n  not\n  and\n  swap1\n  dup4\n  0xffffffffffffffffffffffffffffffffffffffff\n  and\n  mul\n  or\n  swap1\n  sstore\n  pop\n    /* \"contracts/KYC.sol\":60:798  contract kyc{... */\n  dataSize(sub_0)\n  dup1\n  dataOffset(sub_0)\n  0x00\n  codecopy\n  0x00\n  return\nstop\n\nsub_0: assembly {\n        /* \"contracts/KYC.sol\":60:798  contract kyc{... */\n      mstore(0x40, 0x80)\n      callvalue\n      dup1\n      iszero\n      tag_1\n      jumpi\n      0x00\n      dup1\n      revert\n    tag_1:\n      pop\n      jumpi(tag_2, lt(calldatasize, 0x04))\n      shr(0xe0, calldataload(0x00))\n      dup1\n      0x0e27324d\n      eq\n      tag_3\n      jumpi\n      dup1\n      0x453ae3cf\n      eq\n      tag_4\n      jumpi\n      dup1\n      0x672c1cd0\n      eq\n      tag_5\n      jumpi\n      dup1\n      0x788cfb39\n      eq\n      tag_6\n      jumpi\n      dup1\n      0x8da5cb5b\n      eq\n      tag_7\n      jumpi\n    tag_2:\n      0x00\n      dup1\n      revert\n        /* \"contracts/KYC.sol\":564:677  function approveKYC(address _user) onlyOwner public{... */\n    tag_3:\n      tag_8\n      0x04\n      dup1\n      calldatasize\n      sub\n      dup2\n      add\n      swap1\n      tag_9\n      swap2\n      swap1\n      tag_10\n      jump\t// in\n    tag_9:\n      tag_11\n      jump\t// in\n    tag_8:\n      stop\n        /* \"contracts/KYC.sol\":439:558  function submitKYC(string memory name) public {... */\n    tag_4:\n      tag_12\n      0x04\n      dup1\n      calldatasize\n      sub\n      dup2\n      add\n      swap1\n      tag_13\n      swap2\n      swap1\n      tag_14\n      jump\t// in\n    tag_13:\n      tag_15\n      jump\t// in\n    tag_12:\n      stop\n        /* \"contracts/KYC.sol\":683:795  function RejectKYC(address _user) onlyOwner public{... */\n    tag_5:\n      tag_16\n      0x04\n      dup1\n      calldatasize\n      sub\n      dup2\n      add\n      swap1\n      tag_17\n      swap2\n      swap1\n      tag_10\n      jump\t// in\n    tag_17:\n      tag_18\n      jump\t// in\n    tag_16:\n      stop\n        /* \"contracts/KYC.sol\":252:295  mapping(address=>KYCData) public KYCrecords */\n    tag_6:\n      tag_19\n      0x04\n      dup1\n      calldatasize\n      sub\n      dup2\n      add\n      swap1\n      tag_20\n      swap2\n      swap1\n      tag_10\n      jump\t// in\n    tag_20:\n      tag_21\n      jump\t// in\n    tag_19:\n      mload(0x40)\n      tag_22\n      swap3\n      swap2\n      swap1\n      tag_23\n      jump\t// in\n    tag_22:\n      mload(0x40)\n      dup1\n      swap2\n      sub\n      swap1\n      return\n        /* \"contracts/KYC.sol\":79:99  address public owner */\n    tag_7:\n      tag_24\n      tag_25\n      jump\t// in\n    tag_24:\n      mload(0x40)\n      tag_26\n      swap2\n      swap1\n      tag_27\n      jump\t// in\n    tag_26:\n      mload(0x40)\n      dup1\n      swap2\n      sub\n      swap1\n      return\n        /* \"contracts/KYC.sol\":564:677  function approveKYC(address _user) onlyOwner public{... */\n    tag_11:\n        /* \"contracts/KYC.sol\":407:412  owner */\n      0x00\n      dup1\n      sload\n      swap1\n      0x0100\n      exp\n      swap1\n      div\n      0xffffffffffffffffffffffffffffffffffffffff\n      and\n        /* \"contracts/KYC.sol\":395:412  msg.sender==owner */\n      0xffffffffffffffffffffffffffffffffffffffff\n      and\n        /* \"contracts/KYC.sol\":395:405  msg.sender */\n      caller\n        /* \"contracts/KYC.sol\":395:412  msg.sender==owner */\n      0xffffffffffffffffffffffffffffffffffffffff\n      and\n      eq\n        /* \"contracts/KYC.sol\":387:413  require(msg.sender==owner) */\n      tag_29\n      jumpi\n      0x00\n      dup1\n      revert\n    tag_29:\n        /* \"contracts/KYC.sol\":651:669  KYCStatus.Approved */\n      0x02\n        /* \"contracts/KYC.sol\":626:636  KYCrecords */\n      0x01\n        /* \"contracts/KYC.sol\":626:643  KYCrecords[_user] */\n      0x00\n        /* \"contracts/KYC.sol\":637:642  _user */\n      dup4\n        /* \"contracts/KYC.sol\":626:643  KYCrecords[_user] */\n      0xffffffffffffffffffffffffffffffffffffffff\n      and\n      0xffffffffffffffffffffffffffffffffffffffff\n      and\n      dup2\n      mstore\n      0x20\n      add\n      swap1\n      dup2\n      mstore\n      0x20\n      add\n      0x00\n      keccak256\n        /* \"contracts/KYC.sol\":626:650  KYCrecords[_user].status */\n      0x01\n      add\n      0x00\n        /* \"contracts/KYC.sol\":626:669  KYCrecords[_user].status=KYCStatus.Approved */\n      0x0100\n      exp\n      dup2\n      sload\n      dup2\n      0xff\n      mul\n      not\n      and\n      swap1\n      dup4\n      0x03\n      dup2\n      gt\n      iszero\n      tag_31\n      jumpi\n      tag_32\n      tag_33\n      jump\t// in\n    tag_32:\n    tag_31:\n      mul\n      or\n      swap1\n      sstore\n      pop\n        /* \"contracts/KYC.sol\":564:677  function approveKYC(address _user) onlyOwner public{... */\n      pop\n      jump\t// out\n        /* \"contracts/KYC.sol\":439:558  function submitKYC(string memory name) public {... */\n    tag_15:\n        /* \"contracts/KYC.sol\":519:550  KYCData(name,KYCStatus.Pending) */\n      mload(0x40)\n      dup1\n      0x40\n      add\n      0x40\n      mstore\n      dup1\n        /* \"contracts/KYC.sol\":527:531  name */\n      dup3\n        /* \"contracts/KYC.sol\":519:550  KYCData(name,KYCStatus.Pending) */\n      dup2\n      mstore\n      0x20\n      add\n        /* \"contracts/KYC.sol\":532:549  KYCStatus.Pending */\n      0x01\n        /* \"contracts/KYC.sol\":519:550  KYCData(name,KYCStatus.Pending) */\n      0x03\n      dup2\n      gt\n      iszero\n      tag_35\n      jumpi\n      tag_36\n      tag_33\n      jump\t// in\n    tag_36:\n    tag_35:\n      dup2\n      mstore\n      pop\n        /* \"contracts/KYC.sol\":496:506  KYCrecords */\n      0x01\n        /* \"contracts/KYC.sol\":496:518  KYCrecords[msg.sender] */\n      0x00\n        /* \"contracts/KYC.sol\":507:517  msg.sender */\n      caller\n        /* \"contracts/KYC.sol\":496:518  KYCrecords[msg.sender] */\n      0xffffffffffffffffffffffffffffffffffffffff\n      and\n      0xffffffffffffffffffffffffffffffffffffffff\n      and\n      dup2\n      mstore\n      0x20\n      add\n      swap1\n      dup2\n      mstore\n      0x20\n      add\n      0x00\n      keccak256\n        /* \"contracts/KYC.sol\":496:550  KYCrecords[msg.sender]=KYCData(name,KYCStatus.Pending) */\n      0x00\n      dup3\n      add\n      mload\n      dup2\n      0x00\n      add\n      swap1\n      dup2\n      tag_37\n      swap2\n      swap1\n      tag_38\n      jump\t// in\n    tag_37:\n      pop\n      0x20\n      dup3\n      add\n      mload\n      dup2\n      0x01\n      add\n      exp(0x0100, 0x00)\n      dup2\n      sload\n      dup2\n      0xff\n      mul\n      not\n      and\n      swap1\n      dup4\n      0x03\n      dup2\n      gt\n      iszero\n      tag_39\n      jumpi\n      tag_40\n      tag_33\n      jump\t// in\n    tag_40:\n    tag_39:\n      mul\n      or\n      swap1\n      sstore\n      pop\n      swap1\n      pop\n      pop\n        /* \"contracts/KYC.sol\":439:558  function submitKYC(string memory name) public {... */\n      pop\n      jump\t// out\n        /* \"contracts/KYC.sol\":683:795  function RejectKYC(address _user) onlyOwner public{... */\n    tag_18:\n        /* \"contracts/KYC.sol\":407:412  owner */\n      0x00\n      dup1\n      sload\n      swap1\n      0x0100\n      exp\n      swap1\n      div\n      0xffffffffffffffffffffffffffffffffffffffff\n      and\n        /* \"contracts/KYC.sol\":395:412  msg.sender==owner */\n      0xffffffffffffffffffffffffffffffffffffffff\n      and\n        /* \"contracts/KYC.sol\":395:405  msg.sender */\n      caller\n        /* \"contracts/KYC.sol\":395:412  msg.sender==owner */\n      0xffffffffffffffffffffffffffffffffffffffff\n      and\n      eq\n        /* \"contracts/KYC.sol\":387:413  require(msg.sender==owner) */\n      tag_42\n      jumpi\n      0x00\n      dup1\n      revert\n    tag_42:\n        /* \"contracts/KYC.sol\":769:787  KYCStatus.Rejected */\n      0x03\n        /* \"contracts/KYC.sol\":744:754  KYCrecords */\n      0x01\n        /* \"contracts/KYC.sol\":744:761  KYCrecords[_user] */\n      0x00\n        /* \"contracts/KYC.sol\":755:760  _user */\n      dup4\n        /* \"contracts/KYC.sol\":744:761  KYCrecords[_user] */\n      0xffffffffffffffffffffffffffffffffffffffff\n      and\n      0xffffffffffffffffffffffffffffffffffffffff\n      and\n      dup2\n      mstore\n      0x20\n      add\n      swap1\n      dup2\n      mstore\n      0x20\n      add\n      0x00\n      keccak256\n        /* \"contracts/KYC.sol\":744:768  KYCrecords[_user].status */\n      0x01\n      add\n      0x00\n        /* \"contracts/KYC.sol\":744:787  KYCrecords[_user].status=KYCStatus.Rejected */\n      0x0100\n      exp\n      dup2\n      sload\n      dup2\n      0xff\n      mul\n      not\n      and\n      swap1\n      dup4\n      0x03\n      dup2\n      gt\n      iszero\n      tag_44\n      jumpi\n      tag_45\n      tag_33\n      jump\t// in\n    tag_45:\n    tag_44:\n      mul\n      or\n      swap1\n      sstore\n      pop\n        /* \"contracts/KYC.sol\":683:795  function RejectKYC(address _user) onlyOwner public{... */\n      pop\n      jump\t// out\n        /* \"contracts/KYC.sol\":252:295  mapping(address=>KYCData) public KYCrecords */\n    tag_21:\n      mstore(0x20, 0x01)\n      dup1\n      0x00\n      mstore\n      keccak256(0x00, 0x40)\n      0x00\n      swap2\n      pop\n      swap1\n      pop\n      dup1\n      0x00\n      add\n      dup1\n      sload\n      tag_46\n      swap1\n      tag_47\n      jump\t// in\n    tag_46:\n      dup1\n      0x1f\n      add\n      0x20\n      dup1\n      swap2\n      div\n      mul\n      0x20\n      add\n      mload(0x40)\n      swap1\n      dup2\n      add\n      0x40\n      mstore\n      dup1\n      swap3\n      swap2\n      swap1\n      dup2\n      dup2\n      mstore\n      0x20\n      add\n      dup3\n      dup1\n      sload\n      tag_48\n      swap1\n      tag_47\n      jump\t// in\n    tag_48:\n      dup1\n      iszero\n      tag_49\n      jumpi\n      dup1\n      0x1f\n      lt\n      tag_50\n      jumpi\n      0x0100\n      dup1\n      dup4\n      sload\n      div\n      mul\n      dup4\n      mstore\n      swap2\n      0x20\n      add\n      swap2\n      jump(tag_49)\n    tag_50:\n      dup3\n      add\n      swap2\n      swap1\n      0x00\n      mstore\n      keccak256(0x00, 0x20)\n      swap1\n    tag_51:\n      dup2\n      sload\n      dup2\n      mstore\n      swap1\n      0x01\n      add\n      swap1\n      0x20\n      add\n      dup1\n      dup4\n      gt\n      tag_51\n      jumpi\n      dup3\n      swap1\n      sub\n      0x1f\n      and\n      dup3\n      add\n      swap2\n    tag_49:\n      pop\n      pop\n      pop\n      pop\n      pop\n      swap1\n      dup1\n      0x01\n      add\n      0x00\n      swap1\n      sload\n      swap1\n      0x0100\n      exp\n      swap1\n      div\n      0xff\n      and\n      swap1\n      pop\n      dup3\n      jump\t// out\n        /* \"contracts/KYC.sol\":79:99  address public owner */\n    tag_25:\n      0x00\n      dup1\n      sload\n      swap1\n      0x0100\n      exp\n      swap1\n      div\n      0xffffffffffffffffffffffffffffffffffffffff\n      and\n      dup2\n      jump\t// out\n        /* \"#utility.yul\":7:82   */\n    tag_52:\n        /* \"#utility.yul\":40:46   */\n      0x00\n        /* \"#utility.yul\":73:75   */\n      0x40\n        /* \"#utility.yul\":67:76   */\n      mload\n        /* \"#utility.yul\":57:76   */\n      swap1\n      pop\n        /* \"#utility.yul\":7:82   */\n      swap1\n      jump\t// out\n        /* \"#utility.yul\":88:205   */\n    tag_53:\n        /* \"#utility.yul\":197:198   */\n      0x00\n        /* \"#utility.yul\":194:195   */\n      dup1\n        /* \"#utility.yul\":187:199   */\n      revert\n        /* \"#utility.yul\":211:328   */\n    tag_54:\n        /* \"#utility.yul\":320:321   */\n      0x00\n        /* \"#utility.yul\":317:318   */\n      dup1\n        /* \"#utility.yul\":310:322   */\n      revert\n        /* \"#utility.yul\":334:460   */\n    tag_55:\n        /* \"#utility.yul\":371:378   */\n      0x00\n        /* \"#utility.yul\":411:453   */\n      0xffffffffffffffffffffffffffffffffffffffff\n        /* \"#utility.yul\":404:409   */\n      dup3\n        /* \"#utility.yul\":400:454   */\n      and\n        /* \"#utility.yul\":389:454   */\n      swap1\n      pop\n        /* \"#utility.yul\":334:460   */\n      swap2\n      swap1\n      pop\n      jump\t// out\n        /* \"#utility.yul\":466:562   */\n    tag_56:\n        /* \"#utility.yul\":503:510   */\n      0x00\n        /* \"#utility.yul\":532:556   */\n      tag_101\n        /* \"#utility.yul\":550:555   */\n      dup3\n        /* \"#utility.yul\":532:556   */\n      tag_55\n      jump\t// in\n    tag_101:\n        /* \"#utility.yul\":521:556   */\n      swap1\n      pop\n        /* \"#utility.yul\":466:562   */\n      swap2\n      swap1\n      pop\n      jump\t// out\n        /* \"#utility.yul\":568:690   */\n    tag_57:\n        /* \"#utility.yul\":641:665   */\n      tag_103\n        /* \"#utility.yul\":659:664   */\n      dup2\n        /* \"#utility.yul\":641:665   */\n      tag_56\n      jump\t// in\n    tag_103:\n        /* \"#utility.yul\":634:639   */\n      dup2\n        /* \"#utility.yul\":631:666   */\n      eq\n        /* \"#utility.yul\":621:684   */\n      tag_104\n      jumpi\n        /* \"#utility.yul\":680:681   */\n      0x00\n        /* \"#utility.yul\":677:678   */\n      dup1\n        /* \"#utility.yul\":670:682   */\n      revert\n        /* \"#utility.yul\":621:684   */\n    tag_104:\n        /* \"#utility.yul\":568:690   */\n      pop\n      jump\t// out\n        /* \"#utility.yul\":696:835   */\n    tag_58:\n        /* \"#utility.yul\":742:747   */\n      0x00\n        /* \"#utility.yul\":780:786   */\n      dup2\n        /* \"#utility.yul\":767:787   */\n      calldataload\n        /* \"#utility.yul\":758:787   */\n      swap1\n      pop\n        /* \"#utility.yul\":796:829   */\n      tag_106\n        /* \"#utility.yul\":823:828   */\n      dup2\n        /* \"#utility.yul\":796:829   */\n      tag_57\n      jump\t// in\n    tag_106:\n        /* \"#utility.yul\":696:835   */\n      swap3\n      swap2\n      pop\n      pop\n      jump\t// out\n        /* \"#utility.yul\":841:1170   */\n    tag_10:\n        /* \"#utility.yul\":900:906   */\n      0x00\n        /* \"#utility.yul\":949:951   */\n      0x20\n        /* \"#utility.yul\":937:946   */\n      dup3\n        /* \"#utility.yul\":928:935   */\n      dup5\n        /* \"#utility.yul\":924:947   */\n      sub\n        /* \"#utility.yul\":920:952   */\n      slt\n        /* \"#utility.yul\":917:1036   */\n      iszero\n      tag_108\n      jumpi\n        /* \"#utility.yul\":955:1034   */\n      tag_109\n      tag_53\n      jump\t// in\n    tag_109:\n        /* \"#utility.yul\":917:1036   */\n    tag_108:\n        /* \"#utility.yul\":1075:1076   */\n      0x00\n        /* \"#utility.yul\":1100:1153   */\n      tag_110\n        /* \"#utility.yul\":1145:1152   */\n      dup5\n        /* \"#utility.yul\":1136:1142   */\n      dup3\n        /* \"#utility.yul\":1125:1134   */\n      dup6\n        /* \"#utility.yul\":1121:1143   */\n      add\n        /* \"#utility.yul\":1100:1153   */\n      tag_58\n      jump\t// in\n    tag_110:\n        /* \"#utility.yul\":1090:1153   */\n      swap2\n      pop\n        /* \"#utility.yul\":1046:1163   */\n      pop\n        /* \"#utility.yul\":841:1170   */\n      swap3\n      swap2\n      pop\n      pop\n      jump\t// out\n        /* \"#utility.yul\":1176:1293   */\n    tag_59:\n        /* \"#utility.yul\":1285:1286   */\n      0x00\n        /* \"#utility.yul\":1282:1283   */\n      dup1\n        /* \"#utility.yul\":1275:1287   */\n      revert\n        /* \"#utility.yul\":1299:1416   */\n    tag_60:\n        /* \"#utility.yul\":1408:1409   */\n      0x00\n        /* \"#utility.yul\":1405:1406   */\n      dup1\n        /* \"#utility.yul\":1398:1410   */\n      revert\n        /* \"#utility.yul\":1422:1524   */\n    tag_61:\n        /* \"#utility.yul\":1463:1469   */\n      0x00\n        /* \"#utility.yul\":1514:1516   */\n      0x1f\n        /* \"#utility.yul\":1510:1517   */\n      not\n        /* \"#utility.yul\":1505:1507   */\n      0x1f\n        /* \"#utility.yul\":1498:1503   */\n      dup4\n        /* \"#utility.yul\":1494:1508   */\n      add\n        /* \"#utility.yul\":1490:1518   */\n      and\n        /* \"#utility.yul\":1480:1518   */\n      swap1\n      pop\n        /* \"#utility.yul\":1422:1524   */\n      swap2\n      swap1\n      pop\n      jump\t// out\n        /* \"#utility.yul\":1530:1710   */\n    tag_62:\n        /* \"#utility.yul\":1578:1655   */\n      0x4e487b7100000000000000000000000000000000000000000000000000000000\n        /* \"#utility.yul\":1575:1576   */\n      0x00\n        /* \"#utility.yul\":1568:1656   */\n      mstore\n        /* \"#utility.yul\":1675:1679   */\n      0x41\n        /* \"#utility.yul\":1672:1673   */\n      0x04\n        /* \"#utility.yul\":1665:1680   */\n      mstore\n        /* \"#utility.yul\":1699:1703   */\n      0x24\n        /* \"#utility.yul\":1696:1697   */\n      0x00\n        /* \"#utility.yul\":1689:1704   */\n      revert\n        /* \"#utility.yul\":1716:1997   */\n    tag_63:\n        /* \"#utility.yul\":1799:1826   */\n      tag_116\n        /* \"#utility.yul\":1821:1825   */\n      dup3\n        /* \"#utility.yul\":1799:1826   */\n      tag_61\n      jump\t// in\n    tag_116:\n        /* \"#utility.yul\":1791:1797   */\n      dup2\n        /* \"#utility.yul\":1787:1827   */\n      add\n        /* \"#utility.yul\":1929:1935   */\n      dup2\n        /* \"#utility.yul\":1917:1927   */\n      dup2\n        /* \"#utility.yul\":1914:1936   */\n      lt\n        /* \"#utility.yul\":1893:1911   */\n      0xffffffffffffffff\n        /* \"#utility.yul\":1881:1891   */\n      dup3\n        /* \"#utility.yul\":1878:1912   */\n      gt\n        /* \"#utility.yul\":1875:1937   */\n      or\n        /* \"#utility.yul\":1872:1960   */\n      iszero\n      tag_117\n      jumpi\n        /* \"#utility.yul\":1940:1958   */\n      tag_118\n      tag_62\n      jump\t// in\n    tag_118:\n        /* \"#utility.yul\":1872:1960   */\n    tag_117:\n        /* \"#utility.yul\":1980:1990   */\n      dup1\n        /* \"#utility.yul\":1976:1978   */\n      0x40\n        /* \"#utility.yul\":1969:1991   */\n      mstore\n        /* \"#utility.yul\":1759:1997   */\n      pop\n        /* \"#utility.yul\":1716:1997   */\n      pop\n      pop\n      jump\t// out\n        /* \"#utility.yul\":2003:2132   */\n    tag_64:\n        /* \"#utility.yul\":2037:2043   */\n      0x00\n        /* \"#utility.yul\":2064:2084   */\n      tag_120\n      tag_52\n      jump\t// in\n    tag_120:\n        /* \"#utility.yul\":2054:2084   */\n      swap1\n      pop\n        /* \"#utility.yul\":2093:2126   */\n      tag_121\n        /* \"#utility.yul\":2121:2125   */\n      dup3\n        /* \"#utility.yul\":2113:2119   */\n      dup3\n        /* \"#utility.yul\":2093:2126   */\n      tag_63\n      jump\t// in\n    tag_121:\n        /* \"#utility.yul\":2003:2132   */\n      swap2\n      swap1\n      pop\n      jump\t// out\n        /* \"#utility.yul\":2138:2446   */\n    tag_65:\n        /* \"#utility.yul\":2200:2204   */\n      0x00\n        /* \"#utility.yul\":2290:2308   */\n      0xffffffffffffffff\n        /* \"#utility.yul\":2282:2288   */\n      dup3\n        /* \"#utility.yul\":2279:2309   */\n      gt\n        /* \"#utility.yul\":2276:2332   */\n      iszero\n      tag_123\n      jumpi\n        /* \"#utility.yul\":2312:2330   */\n      tag_124\n      tag_62\n      jump\t// in\n    tag_124:\n        /* \"#utility.yul\":2276:2332   */\n    tag_123:\n        /* \"#utility.yul\":2350:2379   */\n      tag_125\n        /* \"#utility.yul\":2372:2378   */\n      dup3\n        /* \"#utility.yul\":2350:2379   */\n      tag_61\n      jump\t// in\n    tag_125:\n        /* \"#utility.yul\":2342:2379   */\n      swap1\n      pop\n        /* \"#utility.yul\":2434:2438   */\n      0x20\n        /* \"#utility.yul\":2428:2432   */\n      dup2\n        /* \"#utility.yul\":2424:2439   */\n      add\n        /* \"#utility.yul\":2416:2439   */\n      swap1\n      pop\n        /* \"#utility.yul\":2138:2446   */\n      swap2\n      swap1\n      pop\n      jump\t// out\n        /* \"#utility.yul\":2452:2598   */\n    tag_66:\n        /* \"#utility.yul\":2549:2555   */\n      dup3\n        /* \"#utility.yul\":2544:2547   */\n      dup2\n        /* \"#utility.yul\":2539:2542   */\n      dup4\n        /* \"#utility.yul\":2526:2556   */\n      calldatacopy\n        /* \"#utility.yul\":2590:2591   */\n      0x00\n        /* \"#utility.yul\":2581:2587   */\n      dup4\n        /* \"#utility.yul\":2576:2579   */\n      dup4\n        /* \"#utility.yul\":2572:2588   */\n      add\n        /* \"#utility.yul\":2565:2592   */\n      mstore\n        /* \"#utility.yul\":2452:2598   */\n      pop\n      pop\n      pop\n      jump\t// out\n        /* \"#utility.yul\":2604:3029   */\n    tag_67:\n        /* \"#utility.yul\":2682:2687   */\n      0x00\n        /* \"#utility.yul\":2707:2773   */\n      tag_128\n        /* \"#utility.yul\":2723:2772   */\n      tag_129\n        /* \"#utility.yul\":2765:2771   */\n      dup5\n        /* \"#utility.yul\":2723:2772   */\n      tag_65\n      jump\t// in\n    tag_129:\n        /* \"#utility.yul\":2707:2773   */\n      tag_64\n      jump\t// in\n    tag_128:\n        /* \"#utility.yul\":2698:2773   */\n      swap1\n      pop\n        /* \"#utility.yul\":2796:2802   */\n      dup3\n        /* \"#utility.yul\":2789:2794   */\n      dup2\n        /* \"#utility.yul\":2782:2803   */\n      mstore\n        /* \"#utility.yul\":2834:2838   */\n      0x20\n        /* \"#utility.yul\":2827:2832   */\n      dup2\n        /* \"#utility.yul\":2823:2839   */\n      add\n        /* \"#utility.yul\":2872:2875   */\n      dup5\n        /* \"#utility.yul\":2863:2869   */\n      dup5\n        /* \"#utility.yul\":2858:2861   */\n      dup5\n        /* \"#utility.yul\":2854:2870   */\n      add\n        /* \"#utility.yul\":2851:2876   */\n      gt\n        /* \"#utility.yul\":2848:2960   */\n      iszero\n      tag_130\n      jumpi\n        /* \"#utility.yul\":2879:2958   */\n      tag_131\n      tag_60\n      jump\t// in\n    tag_131:\n        /* \"#utility.yul\":2848:2960   */\n    tag_130:\n        /* \"#utility.yul\":2969:3023   */\n      tag_132\n        /* \"#utility.yul\":3016:3022   */\n      dup5\n        /* \"#utility.yul\":3011:3014   */\n      dup3\n        /* \"#utility.yul\":3006:3009   */\n      dup6\n        /* \"#utility.yul\":2969:3023   */\n      tag_66\n      jump\t// in\n    tag_132:\n        /* \"#utility.yul\":2688:3029   */\n      pop\n        /* \"#utility.yul\":2604:3029   */\n      swap4\n      swap3\n      pop\n      pop\n      pop\n      jump\t// out\n        /* \"#utility.yul\":3049:3389   */\n    tag_68:\n        /* \"#utility.yul\":3105:3110   */\n      0x00\n        /* \"#utility.yul\":3154:3157   */\n      dup3\n        /* \"#utility.yul\":3147:3151   */\n      0x1f\n        /* \"#utility.yul\":3139:3145   */\n      dup4\n        /* \"#utility.yul\":3135:3152   */\n      add\n        /* \"#utility.yul\":3131:3158   */\n      slt\n        /* \"#utility.yul\":3121:3243   */\n      tag_134\n      jumpi\n        /* \"#utility.yul\":3162:3241   */\n      tag_135\n      tag_59\n      jump\t// in\n    tag_135:\n        /* \"#utility.yul\":3121:3243   */\n    tag_134:\n        /* \"#utility.yul\":3279:3285   */\n      dup2\n        /* \"#utility.yul\":3266:3286   */\n      calldataload\n        /* \"#utility.yul\":3304:3383   */\n      tag_136\n        /* \"#utility.yul\":3379:3382   */\n      dup5\n        /* \"#utility.yul\":3371:3377   */\n      dup3\n        /* \"#utility.yul\":3364:3368   */\n      0x20\n        /* \"#utility.yul\":3356:3362   */\n      dup7\n        /* \"#utility.yul\":3352:3369   */\n      add\n        /* \"#utility.yul\":3304:3383   */\n      tag_67\n      jump\t// in\n    tag_136:\n        /* \"#utility.yul\":3295:3383   */\n      swap2\n      pop\n        /* \"#utility.yul\":3111:3389   */\n      pop\n        /* \"#utility.yul\":3049:3389   */\n      swap3\n      swap2\n      pop\n      pop\n      jump\t// out\n        /* \"#utility.yul\":3395:3904   */\n    tag_14:\n        /* \"#utility.yul\":3464:3470   */\n      0x00\n        /* \"#utility.yul\":3513:3515   */\n      0x20\n        /* \"#utility.yul\":3501:3510   */\n      dup3\n        /* \"#utility.yul\":3492:3499   */\n      dup5\n        /* \"#utility.yul\":3488:3511   */\n      sub\n        /* \"#utility.yul\":3484:3516   */\n      slt\n        /* \"#utility.yul\":3481:3600   */\n      iszero\n      tag_138\n      jumpi\n        /* \"#utility.yul\":3519:3598   */\n      tag_139\n      tag_53\n      jump\t// in\n    tag_139:\n        /* \"#utility.yul\":3481:3600   */\n    tag_138:\n        /* \"#utility.yul\":3667:3668   */\n      0x00\n        /* \"#utility.yul\":3656:3665   */\n      dup3\n        /* \"#utility.yul\":3652:3669   */\n      add\n        /* \"#utility.yul\":3639:3670   */\n      calldataload\n        /* \"#utility.yul\":3697:3715   */\n      0xffffffffffffffff\n        /* \"#utility.yul\":3689:3695   */\n      dup2\n        /* \"#utility.yul\":3686:3716   */\n      gt\n        /* \"#utility.yul\":3683:3800   */\n      iszero\n      tag_140\n      jumpi\n        /* \"#utility.yul\":3719:3798   */\n      tag_141\n      tag_54\n      jump\t// in\n    tag_141:\n        /* \"#utility.yul\":3683:3800   */\n    tag_140:\n        /* \"#utility.yul\":3824:3887   */\n      tag_142\n        /* \"#utility.yul\":3879:3886   */\n      dup5\n        /* \"#utility.yul\":3870:3876   */\n      dup3\n        /* \"#utility.yul\":3859:3868   */\n      dup6\n        /* \"#utility.yul\":3855:3877   */\n      add\n        /* \"#utility.yul\":3824:3887   */\n      tag_68\n      jump\t// in\n    tag_142:\n        /* \"#utility.yul\":3814:3887   */\n      swap2\n      pop\n        /* \"#utility.yul\":3610:3897   */\n      pop\n        /* \"#utility.yul\":3395:3904   */\n      swap3\n      swap2\n      pop\n      pop\n      jump\t// out\n        /* \"#utility.yul\":3910:4009   */\n    tag_69:\n        /* \"#utility.yul\":3962:3968   */\n      0x00\n        /* \"#utility.yul\":3996:4001   */\n      dup2\n        /* \"#utility.yul\":3990:4002   */\n      mload\n        /* \"#utility.yul\":3980:4002   */\n      swap1\n      pop\n        /* \"#utility.yul\":3910:4009   */\n      swap2\n      swap1\n      pop\n      jump\t// out\n        /* \"#utility.yul\":4015:4184   */\n    tag_70:\n        /* \"#utility.yul\":4099:4110   */\n      0x00\n        /* \"#utility.yul\":4133:4139   */\n      dup3\n        /* \"#utility.yul\":4128:4131   */\n      dup3\n        /* \"#utility.yul\":4121:4140   */\n      mstore\n        /* \"#utility.yul\":4173:4177   */\n      0x20\n        /* \"#utility.yul\":4168:4171   */\n      dup3\n        /* \"#utility.yul\":4164:4178   */\n      add\n        /* \"#utility.yul\":4149:4178   */\n      swap1\n      pop\n        /* \"#utility.yul\":4015:4184   */\n      swap3\n      swap2\n      pop\n      pop\n      jump\t// out\n        /* \"#utility.yul\":4190:4436   */\n    tag_71:\n        /* \"#utility.yul\":4271:4272   */\n      0x00\n        /* \"#utility.yul\":4281:4394   */\n    tag_146:\n        /* \"#utility.yul\":4295:4301   */\n      dup4\n        /* \"#utility.yul\":4292:4293   */\n      dup2\n        /* \"#utility.yul\":4289:4302   */\n      lt\n        /* \"#utility.yul\":4281:4394   */\n      iszero\n      tag_148\n      jumpi\n        /* \"#utility.yul\":4380:4381   */\n      dup1\n        /* \"#utility.yul\":4375:4378   */\n      dup3\n        /* \"#utility.yul\":4371:4382   */\n      add\n        /* \"#utility.yul\":4365:4383   */\n      mload\n        /* \"#utility.yul\":4361:4362   */\n      dup2\n        /* \"#utility.yul\":4356:4359   */\n      dup5\n        /* \"#utility.yul\":4352:4363   */\n      add\n        /* \"#utility.yul\":4345:4384   */\n      mstore\n        /* \"#utility.yul\":4317:4319   */\n      0x20\n        /* \"#utility.yul\":4314:4315   */\n      dup2\n        /* \"#utility.yul\":4310:4320   */\n      add\n        /* \"#utility.yul\":4305:4320   */\n      swap1\n      pop\n        /* \"#utility.yul\":4281:4394   */\n      jump(tag_146)\n    tag_148:\n        /* \"#utility.yul\":4428:4429   */\n      0x00\n        /* \"#utility.yul\":4419:4425   */\n      dup5\n        /* \"#utility.yul\":4414:4417   */\n      dup5\n        /* \"#utility.yul\":4410:4426   */\n      add\n        /* \"#utility.yul\":4403:4430   */\n      mstore\n        /* \"#utility.yul\":4252:4436   */\n      pop\n        /* \"#utility.yul\":4190:4436   */\n      pop\n      pop\n      pop\n      jump\t// out\n        /* \"#utility.yul\":4442:4819   */\n    tag_72:\n        /* \"#utility.yul\":4530:4533   */\n      0x00\n        /* \"#utility.yul\":4558:4597   */\n      tag_150\n        /* \"#utility.yul\":4591:4596   */\n      dup3\n        /* \"#utility.yul\":4558:4597   */\n      tag_69\n      jump\t// in\n    tag_150:\n        /* \"#utility.yul\":4613:4684   */\n      tag_151\n        /* \"#utility.yul\":4677:4683   */\n      dup2\n        /* \"#utility.yul\":4672:4675   */\n      dup6\n        /* \"#utility.yul\":4613:4684   */\n      tag_70\n      jump\t// in\n    tag_151:\n        /* \"#utility.yul\":4606:4684   */\n      swap4\n      pop\n        /* \"#utility.yul\":4693:4758   */\n      tag_152\n        /* \"#utility.yul\":4751:4757   */\n      dup2\n        /* \"#utility.yul\":4746:4749   */\n      dup6\n        /* \"#utility.yul\":4739:4743   */\n      0x20\n        /* \"#utility.yul\":4732:4737   */\n      dup7\n        /* \"#utility.yul\":4728:4744   */\n      add\n        /* \"#utility.yul\":4693:4758   */\n      tag_71\n      jump\t// in\n    tag_152:\n        /* \"#utility.yul\":4783:4812   */\n      tag_153\n        /* \"#utility.yul\":4805:4811   */\n      dup2\n        /* \"#utility.yul\":4783:4812   */\n      tag_61\n      jump\t// in\n    tag_153:\n        /* \"#utility.yul\":4778:4781   */\n      dup5\n        /* \"#utility.yul\":4774:4813   */\n      add\n        /* \"#utility.yul\":4767:4813   */\n      swap2\n      pop\n        /* \"#utility.yul\":4534:4819   */\n      pop\n        /* \"#utility.yul\":4442:4819   */\n      swap3\n      swap2\n      pop\n      pop\n      jump\t// out\n        /* \"#utility.yul\":4825:5005   */\n    tag_33:\n        /* \"#utility.yul\":4873:4950   */\n      0x4e487b7100000000000000000000000000000000000000000000000000000000\n        /* \"#utility.yul\":4870:4871   */\n      0x00\n        /* \"#utility.yul\":4863:4951   */\n      mstore\n        /* \"#utility.yul\":4970:4974   */\n      0x21\n        /* \"#utility.yul\":4967:4968   */\n      0x04\n        /* \"#utility.yul\":4960:4975   */\n      mstore\n        /* \"#utility.yul\":4994:4998   */\n      0x24\n        /* \"#utility.yul\":4991:4992   */\n      0x00\n        /* \"#utility.yul\":4984:4999   */\n      revert\n        /* \"#utility.yul\":5011:5127   */\n    tag_73:\n        /* \"#utility.yul\":5095:5096   */\n      0x04\n        /* \"#utility.yul\":5088:5093   */\n      dup2\n        /* \"#utility.yul\":5085:5097   */\n      lt\n        /* \"#utility.yul\":5075:5121   */\n      tag_156\n      jumpi\n        /* \"#utility.yul\":5101:5119   */\n      tag_157\n      tag_33\n      jump\t// in\n    tag_157:\n        /* \"#utility.yul\":5075:5121   */\n    tag_156:\n        /* \"#utility.yul\":5011:5127   */\n      pop\n      jump\t// out\n        /* \"#utility.yul\":5133:5266   */\n    tag_74:\n        /* \"#utility.yul\":5181:5188   */\n      0x00\n        /* \"#utility.yul\":5210:5215   */\n      dup2\n        /* \"#utility.yul\":5199:5215   */\n      swap1\n      pop\n        /* \"#utility.yul\":5216:5260   */\n      tag_159\n        /* \"#utility.yul\":5254:5259   */\n      dup3\n        /* \"#utility.yul\":5216:5260   */\n      tag_73\n      jump\t// in\n    tag_159:\n        /* \"#utility.yul\":5133:5266   */\n      swap2\n      swap1\n      pop\n      jump\t// out\n        /* \"#utility.yul\":5272:5405   */\n    tag_75:\n        /* \"#utility.yul\":5331:5340   */\n      0x00\n        /* \"#utility.yul\":5364:5399   */\n      tag_161\n        /* \"#utility.yul\":5393:5398   */\n      dup3\n        /* \"#utility.yul\":5364:5399   */\n      tag_74\n      jump\t// in\n    tag_161:\n        /* \"#utility.yul\":5351:5399   */\n      swap1\n      pop\n        /* \"#utility.yul\":5272:5405   */\n      swap2\n      swap1\n      pop\n      jump\t// out\n        /* \"#utility.yul\":5411:5560   */\n    tag_76:\n        /* \"#utility.yul\":5507:5553   */\n      tag_163\n        /* \"#utility.yul\":5547:5552   */\n      dup2\n        /* \"#utility.yul\":5507:5553   */\n      tag_75\n      jump\t// in\n    tag_163:\n        /* \"#utility.yul\":5502:5505   */\n      dup3\n        /* \"#utility.yul\":5495:5554   */\n      mstore\n        /* \"#utility.yul\":5411:5560   */\n      pop\n      pop\n      jump\t// out\n        /* \"#utility.yul\":5566:6007   */\n    tag_23:\n        /* \"#utility.yul\":5716:5720   */\n      0x00\n        /* \"#utility.yul\":5754:5756   */\n      0x40\n        /* \"#utility.yul\":5743:5752   */\n      dup3\n        /* \"#utility.yul\":5739:5757   */\n      add\n        /* \"#utility.yul\":5731:5757   */\n      swap1\n      pop\n        /* \"#utility.yul\":5803:5812   */\n      dup2\n        /* \"#utility.yul\":5797:5801   */\n      dup2\n        /* \"#utility.yul\":5793:5813   */\n      sub\n        /* \"#utility.yul\":5789:5790   */\n      0x00\n        /* \"#utility.yul\":5778:5787   */\n      dup4\n        /* \"#utility.yul\":5774:5791   */\n      add\n        /* \"#utility.yul\":5767:5814   */\n      mstore\n        /* \"#utility.yul\":5831:5909   */\n      tag_165\n        /* \"#utility.yul\":5904:5908   */\n      dup2\n        /* \"#utility.yul\":5895:5901   */\n      dup6\n        /* \"#utility.yul\":5831:5909   */\n      tag_72\n      jump\t// in\n    tag_165:\n        /* \"#utility.yul\":5823:5909   */\n      swap1\n      pop\n        /* \"#utility.yul\":5919:6000   */\n      tag_166\n        /* \"#utility.yul\":5996:5998   */\n      0x20\n        /* \"#utility.yul\":5985:5994   */\n      dup4\n        /* \"#utility.yul\":5981:5999   */\n      add\n        /* \"#utility.yul\":5972:5978   */\n      dup5\n        /* \"#utility.yul\":5919:6000   */\n      tag_76\n      jump\t// in\n    tag_166:\n        /* \"#utility.yul\":5566:6007   */\n      swap4\n      swap3\n      pop\n      pop\n      pop\n      jump\t// out\n        /* \"#utility.yul\":6013:6131   */\n    tag_77:\n        /* \"#utility.yul\":6100:6124   */\n      tag_168\n        /* \"#utility.yul\":6118:6123   */\n      dup2\n        /* \"#utility.yul\":6100:6124   */\n      tag_56\n      jump\t// in\n    tag_168:\n        /* \"#utility.yul\":6095:6098   */\n      dup3\n        /* \"#utility.yul\":6088:6125   */\n      mstore\n        /* \"#utility.yul\":6013:6131   */\n      pop\n      pop\n      jump\t// out\n        /* \"#utility.yul\":6137:6359   */\n    tag_27:\n        /* \"#utility.yul\":6230:6234   */\n      0x00\n        /* \"#utility.yul\":6268:6270   */\n      0x20\n        /* \"#utility.yul\":6257:6266   */\n      dup3\n        /* \"#utility.yul\":6253:6271   */\n      add\n        /* \"#utility.yul\":6245:6271   */\n      swap1\n      pop\n        /* \"#utility.yul\":6281:6352   */\n      tag_170\n        /* \"#utility.yul\":6349:6350   */\n      0x00\n        /* \"#utility.yul\":6338:6347   */\n      dup4\n        /* \"#utility.yul\":6334:6351   */\n      add\n        /* \"#utility.yul\":6325:6331   */\n      dup5\n        /* \"#utility.yul\":6281:6352   */\n      tag_77\n      jump\t// in\n    tag_170:\n        /* \"#utility.yul\":6137:6359   */\n      swap3\n      swap2\n      pop\n      pop\n      jump\t// out\n        /* \"#utility.yul\":6365:6545   */\n    tag_78:\n        /* \"#utility.yul\":6413:6490   */\n      0x4e487b7100000000000000000000000000000000000000000000000000000000\n        /* \"#utility.yul\":6410:6411   */\n      0x00\n        /* \"#utility.yul\":6403:6491   */\n      mstore\n        /* \"#utility.yul\":6510:6514   */\n      0x22\n        /* \"#utility.yul\":6507:6508   */\n      0x04\n        /* \"#utility.yul\":6500:6515   */\n      mstore\n        /* \"#utility.yul\":6534:6538   */\n      0x24\n        /* \"#utility.yul\":6531:6532   */\n      0x00\n        /* \"#utility.yul\":6524:6539   */\n      revert\n        /* \"#utility.yul\":6551:6871   */\n    tag_47:\n        /* \"#utility.yul\":6595:6601   */\n      0x00\n        /* \"#utility.yul\":6632:6633   */\n      0x02\n        /* \"#utility.yul\":6626:6630   */\n      dup3\n        /* \"#utility.yul\":6622:6634   */\n      div\n        /* \"#utility.yul\":6612:6634   */\n      swap1\n      pop\n        /* \"#utility.yul\":6679:6680   */\n      0x01\n        /* \"#utility.yul\":6673:6677   */\n      dup3\n        /* \"#utility.yul\":6669:6681   */\n      and\n        /* \"#utility.yul\":6700:6718   */\n      dup1\n        /* \"#utility.yul\":6690:6771   */\n      tag_173\n      jumpi\n        /* \"#utility.yul\":6756:6760   */\n      0x7f\n        /* \"#utility.yul\":6748:6754   */\n      dup3\n        /* \"#utility.yul\":6744:6761   */\n      and\n        /* \"#utility.yul\":6734:6761   */\n      swap2\n      pop\n        /* \"#utility.yul\":6690:6771   */\n    tag_173:\n        /* \"#utility.yul\":6818:6820   */\n      0x20\n        /* \"#utility.yul\":6810:6816   */\n      dup3\n        /* \"#utility.yul\":6807:6821   */\n      lt\n        /* \"#utility.yul\":6787:6805   */\n      dup2\n        /* \"#utility.yul\":6784:6822   */\n      sub\n        /* \"#utility.yul\":6781:6865   */\n      tag_174\n      jumpi\n        /* \"#utility.yul\":6837:6855   */\n      tag_175\n      tag_78\n      jump\t// in\n    tag_175:\n        /* \"#utility.yul\":6781:6865   */\n    tag_174:\n        /* \"#utility.yul\":6602:6871   */\n      pop\n        /* \"#utility.yul\":6551:6871   */\n      swap2\n      swap1\n      pop\n      jump\t// out\n        /* \"#utility.yul\":6877:7018   */\n    tag_79:\n        /* \"#utility.yul\":6926:6930   */\n      0x00\n        /* \"#utility.yul\":6949:6952   */\n      dup2\n        /* \"#utility.yul\":6941:6952   */\n      swap1\n      pop\n        /* \"#utility.yul\":6972:6975   */\n      dup2\n        /* \"#utility.yul\":6969:6970   */\n      0x00\n        /* \"#utility.yul\":6962:6976   */\n      mstore\n        /* \"#utility.yul\":7006:7010   */\n      0x20\n        /* \"#utility.yul\":7003:7004   */\n      0x00\n        /* \"#utility.yul\":6993:7011   */\n      keccak256\n        /* \"#utility.yul\":6985:7011   */\n      swap1\n      pop\n        /* \"#utility.yul\":6877:7018   */\n      swap2\n      swap1\n      pop\n      jump\t// out\n        /* \"#utility.yul\":7024:7117   */\n    tag_80:\n        /* \"#utility.yul\":7061:7067   */\n      0x00\n        /* \"#utility.yul\":7108:7110   */\n      0x20\n        /* \"#utility.yul\":7103:7105   */\n      0x1f\n        /* \"#utility.yul\":7096:7101   */\n      dup4\n        /* \"#utility.yul\":7092:7106   */\n      add\n        /* \"#utility.yul\":7088:7111   */\n      div\n        /* \"#utility.yul\":7078:7111   */\n      swap1\n      pop\n        /* \"#utility.yul\":7024:7117   */\n      swap2\n      swap1\n      pop\n      jump\t// out\n        /* \"#utility.yul\":7123:7230   */\n    tag_81:\n        /* \"#utility.yul\":7167:7175   */\n      0x00\n        /* \"#utility.yul\":7217:7222   */\n      dup3\n        /* \"#utility.yul\":7211:7215   */\n      dup3\n        /* \"#utility.yul\":7207:7223   */\n      shl\n        /* \"#utility.yul\":7186:7223   */\n      swap1\n      pop\n        /* \"#utility.yul\":7123:7230   */\n      swap3\n      swap2\n      pop\n      pop\n      jump\t// out\n        /* \"#utility.yul\":7236:7629   */\n    tag_82:\n        /* \"#utility.yul\":7305:7311   */\n      0x00\n        /* \"#utility.yul\":7355:7356   */\n      0x08\n        /* \"#utility.yul\":7343:7353   */\n      dup4\n        /* \"#utility.yul\":7339:7357   */\n      mul\n        /* \"#utility.yul\":7378:7475   */\n      tag_180\n        /* \"#utility.yul\":7408:7474   */\n      0xffffffffffffffffffffffffffffffffffffffffffffffffffffffffffffffff\n        /* \"#utility.yul\":7397:7406   */\n      dup3\n        /* \"#utility.yul\":7378:7475   */\n      tag_81\n      jump\t// in\n    tag_180:\n        /* \"#utility.yul\":7496:7535   */\n      tag_181\n        /* \"#utility.yul\":7526:7534   */\n      dup7\n        /* \"#utility.yul\":7515:7524   */\n      dup4\n        /* \"#utility.yul\":7496:7535   */\n      tag_81\n      jump\t// in\n    tag_181:\n        /* \"#utility.yul\":7484:7535   */\n      swap6\n      pop\n        /* \"#utility.yul\":7568:7572   */\n      dup1\n        /* \"#utility.yul\":7564:7573   */\n      not\n        /* \"#utility.yul\":7557:7562   */\n      dup5\n        /* \"#utility.yul\":7553:7574   */\n      and\n        /* \"#utility.yul\":7544:7574   */\n      swap4\n      pop\n        /* \"#utility.yul\":7617:7621   */\n      dup1\n        /* \"#utility.yul\":7607:7615   */\n      dup7\n        /* \"#utility.yul\":7603:7622   */\n      and\n        /* \"#utility.yul\":7596:7601   */\n      dup5\n        /* \"#utility.yul\":7593:7623   */\n      or\n        /* \"#utility.yul\":7583:7623   */\n      swap3\n      pop\n        /* \"#utility.yul\":7312:7629   */\n      pop\n      pop\n        /* \"#utility.yul\":7236:7629   */\n      swap4\n      swap3\n      pop\n      pop\n      pop\n      jump\t// out\n        /* \"#utility.yul\":7635:7712   */\n    tag_83:\n        /* \"#utility.yul\":7672:7679   */\n      0x00\n        /* \"#utility.yul\":7701:7706   */\n      dup2\n        /* \"#utility.yul\":7690:7706   */\n      swap1\n      pop\n        /* \"#utility.yul\":7635:7712   */\n      swap2\n      swap1\n      pop\n      jump\t// out\n        /* \"#utility.yul\":7718:7778   */\n    tag_84:\n        /* \"#utility.yul\":7746:7749   */\n      0x00\n        /* \"#utility.yul\":7767:7772   */\n      dup2\n        /* \"#utility.yul\":7760:7772   */\n      swap1\n      pop\n        /* \"#utility.yul\":7718:7778   */\n      swap2\n      swap1\n      pop\n      jump\t// out\n        /* \"#utility.yul\":7784:7926   */\n    tag_85:\n        /* \"#utility.yul\":7834:7843   */\n      0x00\n        /* \"#utility.yul\":7867:7920   */\n      tag_185\n        /* \"#utility.yul\":7885:7919   */\n      tag_186\n        /* \"#utility.yul\":7894:7918   */\n      tag_187\n        /* \"#utility.yul\":7912:7917   */\n      dup5\n        /* \"#utility.yul\":7894:7918   */\n      tag_83\n      jump\t// in\n    tag_187:\n        /* \"#utility.yul\":7885:7919   */\n      tag_84\n      jump\t// in\n    tag_186:\n        /* \"#utility.yul\":7867:7920   */\n      tag_83\n      jump\t// in\n    tag_185:\n        /* \"#utility.yul\":7854:7920   */\n      swap1\n      pop\n        /* \"#utility.yul\":7784:7926   */\n      swap2\n      swap1\n      pop\n      jump\t// out\n        /* \"#utility.yul\":7932:8007   */\n    tag_86:\n        /* \"#utility.yul\":7975:7978   */\n      0x00\n        /* \"#utility.yul\":7996:8001   */\n      dup2\n        /* \"#utility.yul\":7989:8001   */\n      swap1\n      pop\n        /* \"#utility.yul\":7932:8007   */\n      swap2\n      swap1\n      pop\n      jump\t// out\n        /* \"#utility.yul\":8013:8282   */\n    tag_87:\n        /* \"#utility.yul\":8123:8162   */\n      tag_190\n        /* \"#utility.yul\":8154:8161   */\n      dup4\n        /* \"#utility.yul\":8123:8162   */\n      tag_85\n      jump\t// in\n    tag_190:\n        /* \"#utility.yul\":8184:8275   */\n      tag_191\n        /* \"#utility.yul\":8233:8274   */\n      tag_192\n        /* \"#utility.yul\":8257:8273   */\n      dup3\n        /* \"#utility.yul\":8233:8274   */\n      tag_86\n      jump\t// in\n    tag_192:\n        /* \"#utility.yul\":8225:8231   */\n      dup5\n        /* \"#utility.yul\":8218:8222   */\n      dup5\n        /* \"#utility.yul\":8212:8223   */\n      sload\n        /* \"#utility.yul\":8184:8275   */\n      tag_82\n      jump\t// in\n    tag_191:\n        /* \"#utility.yul\":8178:8182   */\n      dup3\n        /* \"#utility.yul\":8171:8276   */\n      sstore\n        /* \"#utility.yul\":8089:8282   */\n      pop\n        /* \"#utility.yul\":8013:8282   */\n      pop\n      pop\n      pop\n      jump\t// out\n        /* \"#utility.yul\":8288:8361   */\n    tag_88:\n        /* \"#utility.yul\":8333:8336   */\n      0x00\n        /* \"#utility.yul\":8288:8361   */\n      swap1\n      jump\t// out\n        /* \"#utility.yul\":8367:8556   */\n    tag_89:\n        /* \"#utility.yul\":8444:8476   */\n      tag_195\n      tag_88\n      jump\t// in\n    tag_195:\n        /* \"#utility.yul\":8485:8550   */\n      tag_196\n        /* \"#utility.yul\":8543:8549   */\n      dup2\n        /* \"#utility.yul\":8535:8541   */\n      dup5\n        /* \"#utility.yul\":8529:8533   */\n      dup5\n        /* \"#utility.yul\":8485:8550   */\n      tag_87\n      jump\t// in\n    tag_196:\n        /* \"#utility.yul\":8420:8556   */\n      pop\n        /* \"#utility.yul\":8367:8556   */\n      pop\n      pop\n      jump\t// out\n        /* \"#utility.yul\":8562:8748   */\n    tag_90:\n        /* \"#utility.yul\":8622:8742   */\n    tag_198:\n        /* \"#utility.yul\":8639:8642   */\n      dup2\n        /* \"#utility.yul\":8632:8637   */\n      dup2\n        /* \"#utility.yul\":8629:8643   */\n      lt\n        /* \"#utility.yul\":8622:8742   */\n      iszero\n      tag_200\n      jumpi\n        /* \"#utility.yul\":8693:8732   */\n      tag_201\n        /* \"#utility.yul\":8730:8731   */\n      0x00\n        /* \"#utility.yul\":8723:8728   */\n      dup3\n        /* \"#utility.yul\":8693:8732   */\n      tag_89\n      jump\t// in\n    tag_201:\n        /* \"#utility.yul\":8666:8667   */\n      0x01\n        /* \"#utility.yul\":8659:8664   */\n      dup2\n        /* \"#utility.yul\":8655:8668   */\n      add\n        /* \"#utility.yul\":8646:8668   */\n      swap1\n      pop\n        /* \"#utility.yul\":8622:8742   */\n      jump(tag_198)\n    tag_200:\n        /* \"#utility.yul\":8562:8748   */\n      pop\n      pop\n      jump\t// out\n        /* \"#utility.yul\":8754:9297   */\n    tag_91:\n        /* \"#utility.yul\":8855:8857   */\n      0x1f\n        /* \"#utility.yul\":8850:8853   */\n      dup3\n        /* \"#utility.yul\":8847:8858   */\n      gt\n        /* \"#utility.yul\":8844:9290   */\n      iszero\n      tag_203\n      jumpi\n        /* \"#utility.yul\":8889:8927   */\n      tag_204\n        /* \"#utility.yul\":8921:8926   */\n      dup2\n        /* \"#utility.yul\":8889:8927   */\n      tag_79\n      jump\t// in\n    tag_204:\n        /* \"#utility.yul\":8973:9002   */\n      tag_205\n        /* \"#utility.yul\":8991:9001   */\n      dup5\n        /* \"#utility.yul\":8973:9002   */\n      tag_80\n      jump\t// in\n    tag_205:\n        /* \"#utility.yul\":8963:8971   */\n      dup2\n        /* \"#utility.yul\":8959:9003   */\n      add\n        /* \"#utility.yul\":9156:9158   */\n      0x20\n        /* \"#utility.yul\":9144:9154   */\n      dup6\n        /* \"#utility.yul\":9141:9159   */\n      lt\n        /* \"#utility.yul\":9138:9187   */\n      iszero\n      tag_206\n      jumpi\n        /* \"#utility.yul\":9177:9185   */\n      dup2\n        /* \"#utility.yul\":9162:9185   */\n      swap1\n      pop\n        /* \"#utility.yul\":9138:9187   */\n    tag_206:\n        /* \"#utility.yul\":9200:9280   */\n      tag_207\n        /* \"#utility.yul\":9256:9278   */\n      tag_208\n        /* \"#utility.yul\":9274:9277   */\n      dup6\n        /* \"#utility.yul\":9256:9278   */\n      tag_80\n      jump\t// in\n    tag_208:\n        /* \"#utility.yul\":9246:9254   */\n      dup4\n        /* \"#utility.yul\":9242:9279   */\n      add\n        /* \"#utility.yul\":9229:9240   */\n      dup3\n        /* \"#utility.yul\":9200:9280   */\n      tag_90\n      jump\t// in\n    tag_207:\n        /* \"#utility.yul\":8859:9290   */\n      pop\n      pop\n        /* \"#utility.yul\":8844:9290   */\n    tag_203:\n        /* \"#utility.yul\":8754:9297   */\n      pop\n      pop\n      pop\n      jump\t// out\n        /* \"#utility.yul\":9303:9420   */\n    tag_92:\n        /* \"#utility.yul\":9357:9365   */\n      0x00\n        /* \"#utility.yul\":9407:9412   */\n      dup3\n        /* \"#utility.yul\":9401:9405   */\n      dup3\n        /* \"#utility.yul\":9397:9413   */\n      shr\n        /* \"#utility.yul\":9376:9413   */\n      swap1\n      pop\n        /* \"#utility.yul\":9303:9420   */\n      swap3\n      swap2\n      pop\n      pop\n      jump\t// out\n        /* \"#utility.yul\":9426:9595   */\n    tag_93:\n        /* \"#utility.yul\":9470:9476   */\n      0x00\n        /* \"#utility.yul\":9503:9554   */\n      tag_211\n        /* \"#utility.yul\":9551:9552   */\n      0x00\n        /* \"#utility.yul\":9547:9553   */\n      not\n        /* \"#utility.yul\":9539:9544   */\n      dup5\n        /* \"#utility.yul\":9536:9537   */\n      0x08\n        /* \"#utility.yul\":9532:9545   */\n      mul\n        /* \"#utility.yul\":9503:9554   */\n      tag_92\n      jump\t// in\n    tag_211:\n        /* \"#utility.yul\":9499:9555   */\n      not\n        /* \"#utility.yul\":9584:9588   */\n      dup1\n        /* \"#utility.yul\":9578:9582   */\n      dup4\n        /* \"#utility.yul\":9574:9589   */\n      and\n        /* \"#utility.yul\":9564:9589   */\n      swap2\n      pop\n        /* \"#utility.yul\":9477:9595   */\n      pop\n        /* \"#utility.yul\":9426:9595   */\n      swap3\n      swap2\n      pop\n      pop\n      jump\t// out\n        /* \"#utility.yul\":9600:9895   */\n    tag_94:\n        /* \"#utility.yul\":9676:9680   */\n      0x00\n        /* \"#utility.yul\":9822:9851   */\n      tag_213\n        /* \"#utility.yul\":9847:9850   */\n      dup4\n        /* \"#utility.yul\":9841:9845   */\n      dup4\n        /* \"#utility.yul\":9822:9851   */\n      tag_93\n      jump\t// in\n    tag_213:\n        /* \"#utility.yul\":9814:9851   */\n      swap2\n      pop\n        /* \"#utility.yul\":9884:9887   */\n      dup3\n        /* \"#utility.yul\":9881:9882   */\n      0x02\n        /* \"#utility.yul\":9877:9888   */\n      mul\n        /* \"#utility.yul\":9871:9875   */\n      dup3\n        /* \"#utility.yul\":9868:9889   */\n      or\n        /* \"#utility.yul\":9860:9889   */\n      swap1\n      pop\n        /* \"#utility.yul\":9600:9895   */\n      swap3\n      swap2\n      pop\n      pop\n      jump\t// out\n        /* \"#utility.yul\":9900:11295   */\n    tag_38:\n        /* \"#utility.yul\":10017:10054   */\n      tag_215\n        /* \"#utility.yul\":10050:10053   */\n      dup3\n        /* \"#utility.yul\":10017:10054   */\n      tag_69\n      jump\t// in\n    tag_215:\n        /* \"#utility.yul\":10119:10137   */\n      0xffffffffffffffff\n        /* \"#utility.yul\":10111:10117   */\n      dup2\n        /* \"#utility.yul\":10108:10138   */\n      gt\n        /* \"#utility.yul\":10105:10161   */\n      iszero\n      tag_216\n      jumpi\n        /* \"#utility.yul\":10141:10159   */\n      tag_217\n      tag_62\n      jump\t// in\n    tag_217:\n        /* \"#utility.yul\":10105:10161   */\n    tag_216:\n        /* \"#utility.yul\":10185:10223   */\n      tag_218\n        /* \"#utility.yul\":10217:10221   */\n      dup3\n        /* \"#utility.yul\":10211:10222   */\n      sload\n        /* \"#utility.yul\":10185:10223   */\n      tag_47\n      jump\t// in\n    tag_218:\n        /* \"#utility.yul\":10270:10337   */\n      tag_219\n        /* \"#utility.yul\":10330:10336   */\n      dup3\n        /* \"#utility.yul\":10322:10328   */\n      dup3\n        /* \"#utility.yul\":10316:10320   */\n      dup6\n        /* \"#utility.yul\":10270:10337   */\n      tag_91\n      jump\t// in\n    tag_219:\n        /* \"#utility.yul\":10364:10365   */\n      0x00\n        /* \"#utility.yul\":10388:10392   */\n      0x20\n        /* \"#utility.yul\":10375:10392   */\n      swap1\n      pop\n        /* \"#utility.yul\":10420:10422   */\n      0x1f\n        /* \"#utility.yul\":10412:10418   */\n      dup4\n        /* \"#utility.yul\":10409:10423   */\n      gt\n        /* \"#utility.yul\":10437:10438   */\n      0x01\n        /* \"#utility.yul\":10432:11050   */\n      dup2\n      eq\n      tag_221\n      jumpi\n        /* \"#utility.yul\":11094:11095   */\n      0x00\n        /* \"#utility.yul\":11111:11117   */\n      dup5\n        /* \"#utility.yul\":11108:11185   */\n      iszero\n      tag_222\n      jumpi\n        /* \"#utility.yul\":11160:11169   */\n      dup3\n        /* \"#utility.yul\":11155:11158   */\n      dup8\n        /* \"#utility.yul\":11151:11170   */\n      add\n        /* \"#utility.yul\":11145:11171   */\n      mload\n        /* \"#utility.yul\":11136:11171   */\n      swap1\n      pop\n        /* \"#utility.yul\":11108:11185   */\n    tag_222:\n        /* \"#utility.yul\":11211:11278   */\n      tag_223\n        /* \"#utility.yul\":11271:11277   */\n      dup6\n        /* \"#utility.yul\":11264:11269   */\n      dup3\n        /* \"#utility.yul\":11211:11278   */\n      tag_94\n      jump\t// in\n    tag_223:\n        /* \"#utility.yul\":11205:11209   */\n      dup7\n        /* \"#utility.yul\":11198:11279   */\n      sstore\n        /* \"#utility.yul\":11067:11289   */\n      pop\n        /* \"#utility.yul\":10402:11289   */\n      jump(tag_220)\n        /* \"#utility.yul\":10432:11050   */\n    tag_221:\n        /* \"#utility.yul\":10484:10488   */\n      0x1f\n        /* \"#utility.yul\":10480:10489   */\n      not\n        /* \"#utility.yul\":10472:10478   */\n      dup5\n        /* \"#utility.yul\":10468:10490   */\n      and\n        /* \"#utility.yul\":10518:10555   */\n      tag_224\n        /* \"#utility.yul\":10550:10554   */\n      dup7\n        /* \"#utility.yul\":10518:10555   */\n      tag_79\n      jump\t// in\n    tag_224:\n        /* \"#utility.yul\":10577:10578   */\n      0x00\n        /* \"#utility.yul\":10591:10799   */\n    tag_225:\n        /* \"#utility.yul\":10605:10612   */\n      dup3\n        /* \"#utility.yul\":10602:10603   */\n      dup2\n        /* \"#utility.yul\":10599:10613   */\n      lt\n        /* \"#utility.yul\":10591:10799   */\n      iszero\n      tag_227\n      jumpi\n        /* \"#utility.yul\":10684:10693   */\n      dup5\n        /* \"#utility.yul\":10679:10682   */\n      dup10\n        /* \"#utility.yul\":10675:10694   */\n      add\n        /* \"#utility.yul\":10669:10695   */\n      mload\n        /* \"#utility.yul\":10661:10667   */\n      dup3\n        /* \"#utility.yul\":10654:10696   */\n      sstore\n        /* \"#utility.yul\":10735:10736   */\n      0x01\n        /* \"#utility.yul\":10727:10733   */\n      dup3\n        /* \"#utility.yul\":10723:10737   */\n      add\n        /* \"#utility.yul\":10713:10737   */\n      swap2\n      pop\n        /* \"#utility.yul\":10782:10784   */\n      0x20\n        /* \"#utility.yul\":10771:10780   */\n      dup6\n        /* \"#utility.yul\":10767:10785   */\n      add\n        /* \"#utility.yul\":10754:10785   */\n      swap5\n      pop\n        /* \"#utility.yul\":10628:10632   */\n      0x20\n        /* \"#utility.yul\":10625:10626   */\n      dup2\n        /* \"#utility.yul\":10621:10633   */\n      add\n        /* \"#utility.yul\":10616:10633   */\n      swap1\n      pop\n        /* \"#utility.yul\":10591:10799   */\n      jump(tag_225)\n    tag_227:\n        /* \"#utility.yul\":10827:10833   */\n      dup7\n        /* \"#utility.yul\":10818:10825   */\n      dup4\n        /* \"#utility.yul\":10815:10834   */\n      lt\n        /* \"#utility.yul\":10812:10991   */\n      iszero\n      tag_228\n      jumpi\n        /* \"#utility.yul\":10885:10894   */\n      dup5\n        /* \"#utility.yul\":10880:10883   */\n      dup10\n        /* \"#utility.yul\":10876:10895   */\n      add\n        /* \"#utility.yul\":10870:10896   */\n      mload\n        /* \"#utility.yul\":10928:10976   */\n      tag_229\n        /* \"#utility.yul\":10970:10974   */\n      0x1f\n        /* \"#utility.yul\":10962:10968   */\n      dup10\n        /* \"#utility.yul\":10958:10975   */\n      and\n        /* \"#utility.yul\":10947:10956   */\n      dup3\n        /* \"#utility.yul\":10928:10976   */\n      tag_93\n      jump\t// in\n    tag_229:\n        /* \"#utility.yul\":10920:10926   */\n      dup4\n        /* \"#utility.yul\":10913:10977   */\n      sstore\n        /* \"#utility.yul\":10835:10991   */\n      pop\n        /* \"#utility.yul\":10812:10991   */\n    tag_228:\n        /* \"#utility.yul\":11037:11038   */\n      0x01\n        /* \"#utility.yul\":11033:11034   */\n      0x02\n        /* \"#utility.yul\":11025:11031   */\n      dup9\n        /* \"#utility.yul\":11021:11035   */\n      mul\n        /* \"#utility.yul\":11017:11039   */\n      add\n        /* \"#utility.yul\":11011:11015   */\n      dup9\n        /* \"#utility.yul\":11004:11040   */\n      sstore\n        /* \"#utility.yul\":10439:11050   */\n      pop\n      pop\n      pop\n        /* \"#utility.yul\":10402:11289   */\n    tag_220:\n      pop\n        /* \"#utility.yul\":9992:11295   */\n      pop\n      pop\n      pop\n        /* \"#utility.yul\":9900:11295   */\n      pop\n      pop\n      jump\t// out\n\n    auxdata: 0xa2646970667358221220a521126c08ba5ebd361f766f1b557940a1c0ce175f3437f8dba1a861f5ada38764736f6c63430008130033\n}\n",
				"bytecode": {
					"linkReferences": {},
					"object": "608060405234801561001057600080fd5b50336000806101000a81548173ffffffffffffffffffffffffffffffffffffffff021916908373ffffffffffffffffffffffffffffffffffffffff160217905550610ab7806100606000396000f3fe608060405234801561001057600080fd5b50600436106100575760003560e01c80630e27324d1461005c578063453ae3cf14610078578063672c1cd014610094578063788cfb39146100b05780638da5cb5b146100e1575b600080fd5b6100766004803603810190610071919061048d565b6100ff565b005b610092600480360381019061008d9190610600565b6101c5565b005b6100ae60048036038101906100a9919061048d565b610278565b005b6100ca60048036038101906100c5919061048d565b61033e565b6040516100d892919061073f565b60405180910390f35b6100e96103f7565b6040516100f6919061077e565b60405180910390f35b60008054906101000a900473ffffffffffffffffffffffffffffffffffffffff1673ffffffffffffffffffffffffffffffffffffffff163373ffffffffffffffffffffffffffffffffffffffff161461015757600080fd5b6002600160008373ffffffffffffffffffffffffffffffffffffffff1673ffffffffffffffffffffffffffffffffffffffff16815260200190815260200160002060010160006101000a81548160ff021916908360038111156101bd576101bc6106c8565b5b021790555050565b6040518060400160405280828152602001600160038111156101ea576101e96106c8565b5b815250600160003373ffffffffffffffffffffffffffffffffffffffff1673ffffffffffffffffffffffffffffffffffffffff168152602001908152602001600020600082015181600001908161024191906109af565b5060208201518160010160006101000a81548160ff0219169083600381111561026d5761026c6106c8565b5b021790555090505050565b60008054906101000a900473ffffffffffffffffffffffffffffffffffffffff1673ffffffffffffffffffffffffffffffffffffffff163373ffffffffffffffffffffffffffffffffffffffff16146102d057600080fd5b6003600160008373ffffffffffffffffffffffffffffffffffffffff1673ffffffffffffffffffffffffffffffffffffffff16815260200190815260200160002060010160006101000a81548160ff02191690836003811115610336576103356106c8565b5b021790555050565b6001602052806000526040600020600091509050806000018054610361906107c8565b80601f016020809104026020016040519081016040528092919081815260200182805461038d906107c8565b80156103da5780601f106103af576101008083540402835291602001916103da565b820191906000526020600020905b8154815290600101906020018083116103bd57829003601f168201915b5050505050908060010160009054906101000a900460ff16905082565b60008054906101000a900473ffffffffffffffffffffffffffffffffffffffff1681565b6000604051905090565b600080fd5b600080fd5b600073ffffffffffffffffffffffffffffffffffffffff82169050919050565b600061045a8261042f565b9050919050565b61046a8161044f565b811461047557600080fd5b50565b60008135905061048781610461565b92915050565b6000602082840312156104a3576104a2610425565b5b60006104b184828501610478565b91505092915050565b600080fd5b600080fd5b6000601f19601f8301169050919050565b7f4e487b7100000000000000000000000000000000000000000000000000000000600052604160045260246000fd5b61050d826104c4565b810181811067ffffffffffffffff8211171561052c5761052b6104d5565b5b80604052505050565b600061053f61041b565b905061054b8282610504565b919050565b600067ffffffffffffffff82111561056b5761056a6104d5565b5b610574826104c4565b9050602081019050919050565b82818337600083830152505050565b60006105a361059e84610550565b610535565b9050828152602081018484840111156105bf576105be6104bf565b5b6105ca848285610581565b509392505050565b600082601f8301126105e7576105e66104ba565b5b81356105f7848260208601610590565b91505092915050565b60006020828403121561061657610615610425565b5b600082013567ffffffffffffffff8111156106345761063361042a565b5b610640848285016105d2565b91505092915050565b600081519050919050565b600082825260208201905092915050565b60005b83811015610683578082015181840152602081019050610668565b60008484015250505050565b600061069a82610649565b6106a48185610654565b93506106b4818560208601610665565b6106bd816104c4565b840191505092915050565b7f4e487b7100000000000000000000000000000000000000000000000000000000600052602160045260246000fd5b60048110610708576107076106c8565b5b50565b6000819050610719826106f7565b919050565b60006107298261070b565b9050919050565b6107398161071e565b82525050565b60006040820190508181036000830152610759818561068f565b90506107686020830184610730565b9392505050565b6107788161044f565b82525050565b6000602082019050610793600083018461076f565b92915050565b7f4e487b7100000000000000000000000000000000000000000000000000000000600052602260045260246000fd5b600060028204905060018216806107e057607f821691505b6020821081036107f3576107f2610799565b5b50919050565b60008190508160005260206000209050919050565b60006020601f8301049050919050565b600082821b905092915050565b60006008830261085b7fffffffffffffffffffffffffffffffffffffffffffffffffffffffffffffffff8261081e565b610865868361081e565b95508019841693508086168417925050509392505050565b6000819050919050565b6000819050919050565b60006108ac6108a76108a28461087d565b610887565b61087d565b9050919050565b6000819050919050565b6108c683610891565b6108da6108d2826108b3565b84845461082b565b825550505050565b600090565b6108ef6108e2565b6108fa8184846108bd565b505050565b5b8181101561091e576109136000826108e7565b600181019050610900565b5050565b601f82111561096357610934816107f9565b61093d8461080e565b8101602085101561094c578190505b6109606109588561080e565b8301826108ff565b50505b505050565b600082821c905092915050565b600061098660001984600802610968565b1980831691505092915050565b600061099f8383610975565b9150826002028217905092915050565b6109b882610649565b67ffffffffffffffff8111156109d1576109d06104d5565b5b6109db82546107c8565b6109e6828285610922565b600060209050601f831160018114610a195760008415610a07578287015190505b610a118582610993565b865550610a79565b601f198416610a27866107f9565b60005b82811015610a4f57848901518255600182019150602085019450602081019050610a2a565b86831015610a6c5784890151610a68601f891682610975565b8355505b6001600288020188555050505b50505050505056fea2646970667358221220a521126c08ba5ebd361f766f1b557940a1c0ce175f3437f8dba1a861f5ada38764736f6c63430008130033",
					"opcodes": "PUSH1 0x80 PUSH1 0x40 MSTORE CALLVALUE DUP1 ISZERO PUSH2 0x10 JUMPI PUSH1 0x0 DUP1 REVERT JUMPDEST POP CALLER PUSH1 0x0 DUP1 PUSH2 0x100 EXP DUP2 SLOAD DUP2 PUSH20 0xFFFFFFFFFFFFFFFFFFFFFFFFFFFFFFFFFFFFFFFF MUL NOT AND SWAP1 DUP4 PUSH20 0xFFFFFFFFFFFFFFFFFFFFFFFFFFFFFFFFFFFFFFFF AND MUL OR SWAP1 SSTORE POP PUSH2 0xAB7 DUP1 PUSH2 0x60 PUSH1 0x0 CODECOPY PUSH1 0x0 RETURN INVALID PUSH1 0x80 PUSH1 0x40 MSTORE CALLVALUE DUP1 ISZERO PUSH2 0x10 JUMPI PUSH1 0x0 DUP1 REVERT JUMPDEST POP PUSH1 0x4 CALLDATASIZE LT PUSH2 0x57 JUMPI PUSH1 0x0 CALLDATALOAD PUSH1 0xE0 SHR DUP1 PUSH4 0xE27324D EQ PUSH2 0x5C JUMPI DUP1 PUSH4 0x453AE3CF EQ PUSH2 0x78 JUMPI DUP1 PUSH4 0x672C1CD0 EQ PUSH2 0x94 JUMPI DUP1 PUSH4 0x788CFB39 EQ PUSH2 0xB0 JUMPI DUP1 PUSH4 0x8DA5CB5B EQ PUSH2 0xE1 JUMPI JUMPDEST PUSH1 0x0 DUP1 REVERT JUMPDEST PUSH2 0x76 PUSH1 0x4 DUP1 CALLDATASIZE SUB DUP2 ADD SWAP1 PUSH2 0x71 SWAP2 SWAP1 PUSH2 0x48D JUMP JUMPDEST PUSH2 0xFF JUMP JUMPDEST STOP JUMPDEST PUSH2 0x92 PUSH1 0x4 DUP1 CALLDATASIZE SUB DUP2 ADD SWAP1 PUSH2 0x8D SWAP2 SWAP1 PUSH2 0x600 JUMP JUMPDEST PUSH2 0x1C5 JUMP JUMPDEST STOP JUMPDEST PUSH2 0xAE PUSH1 0x4 DUP1 CALLDATASIZE SUB DUP2 ADD SWAP1 PUSH2 0xA9 SWAP2 SWAP1 PUSH2 0x48D JUMP JUMPDEST PUSH2 0x278 JUMP JUMPDEST STOP JUMPDEST PUSH2 0xCA PUSH1 0x4 DUP1 CALLDATASIZE SUB DUP2 ADD SWAP1 PUSH2 0xC5 SWAP2 SWAP1 PUSH2 0x48D JUMP JUMPDEST PUSH2 0x33E JUMP JUMPDEST PUSH1 0x40 MLOAD PUSH2 0xD8 SWAP3 SWAP2 SWAP1 PUSH2 0x73F JUMP JUMPDEST PUSH1 0x40 MLOAD DUP1 SWAP2 SUB SWAP1 RETURN JUMPDEST PUSH2 0xE9 PUSH2 0x3F7 JUMP JUMPDEST PUSH1 0x40 MLOAD PUSH2 0xF6 SWAP2 SWAP1 PUSH2 0x77E JUMP JUMPDEST PUSH1 0x40 MLOAD DUP1 SWAP2 SUB SWAP1 RETURN JUMPDEST PUSH1 0x0 DUP1 SLOAD SWAP1 PUSH2 0x100 EXP SWAP1 DIV PUSH20 0xFFFFFFFFFFFFFFFFFFFFFFFFFFFFFFFFFFFFFFFF AND PUSH20 0xFFFFFFFFFFFFFFFFFFFFFFFFFFFFFFFFFFFFFFFF AND CALLER PUSH20 0xFFFFFFFFFFFFFFFFFFFFFFFFFFFFFFFFFFFFFFFF AND EQ PUSH2 0x157 JUMPI PUSH1 0x0 DUP1 REVERT JUMPDEST PUSH1 0x2 PUSH1 0x1 PUSH1 0x0 DUP4 PUSH20 0xFFFFFFFFFFFFFFFFFFFFFFFFFFFFFFFFFFFFFFFF AND PUSH20 0xFFFFFFFFFFFFFFFFFFFFFFFFFFFFFFFFFFFFFFFF AND DUP2 MSTORE PUSH1 0x20 ADD SWAP1 DUP2 MSTORE PUSH1 0x20 ADD PUSH1 0x0 KECCAK256 PUSH1 0x1 ADD PUSH1 0x0 PUSH2 0x100 EXP DUP2 SLOAD DUP2 PUSH1 0xFF MUL NOT AND SWAP1 DUP4 PUSH1 0x3 DUP2 GT ISZERO PUSH2 0x1BD JUMPI PUSH2 0x1BC PUSH2 0x6C8 JUMP JUMPDEST JUMPDEST MUL OR SWAP1 SSTORE POP POP JUMP JUMPDEST PUSH1 0x40 MLOAD DUP1 PUSH1 0x40 ADD PUSH1 0x40 MSTORE DUP1 DUP3 DUP2 MSTORE PUSH1 0x20 ADD PUSH1 0x1 PUSH1 0x3 DUP2 GT ISZERO PUSH2 0x1EA JUMPI PUSH2 0x1E9 PUSH2 0x6C8 JUMP JUMPDEST JUMPDEST DUP2 MSTORE POP PUSH1 0x1 PUSH1 0x0 CALLER PUSH20 0xFFFFFFFFFFFFFFFFFFFFFFFFFFFFFFFFFFFFFFFF AND PUSH20 0xFFFFFFFFFFFFFFFFFFFFFFFFFFFFFFFFFFFFFFFF AND DUP2 MSTORE PUSH1 0x20 ADD SWAP1 DUP2 MSTORE PUSH1 0x20 ADD PUSH1 0x0 KECCAK256 PUSH1 0x0 DUP3 ADD MLOAD DUP2 PUSH1 0x0 ADD SWAP1 DUP2 PUSH2 0x241 SWAP2 SWAP1 PUSH2 0x9AF JUMP JUMPDEST POP PUSH1 0x20 DUP3 ADD MLOAD DUP2 PUSH1 0x1 ADD PUSH1 0x0 PUSH2 0x100 EXP DUP2 SLOAD DUP2 PUSH1 0xFF MUL NOT AND SWAP1 DUP4 PUSH1 0x3 DUP2 GT ISZERO PUSH2 0x26D JUMPI PUSH2 0x26C PUSH2 0x6C8 JUMP JUMPDEST JUMPDEST MUL OR SWAP1 SSTORE POP SWAP1 POP POP POP JUMP JUMPDEST PUSH1 0x0 DUP1 SLOAD SWAP1 PUSH2 0x100 EXP SWAP1 DIV PUSH20 0xFFFFFFFFFFFFFFFFFFFFFFFFFFFFFFFFFFFFFFFF AND PUSH20 0xFFFFFFFFFFFFFFFFFFFFFFFFFFFFFFFFFFFFFFFF AND CALLER PUSH20 0xFFFFFFFFFFFFFFFFFFFFFFFFFFFFFFFFFFFFFFFF AND EQ PUSH2 0x2D0 JUMPI PUSH1 0x0 DUP1 REVERT JUMPDEST PUSH1 0x3 PUSH1 0x1 PUSH1 0x0 DUP4 PUSH20 0xFFFFFFFFFFFFFFFFFFFFFFFFFFFFFFFFFFFFFFFF AND PUSH20 0xFFFFFFFFFFFFFFFFFFFFFFFFFFFFFFFFFFFFFFFF AND DUP2 MSTORE PUSH1 0x20 ADD SWAP1 DUP2 MSTORE PUSH1 0x20 ADD PUSH1 0x0 KECCAK256 PUSH1 0x1 ADD PUSH1 0x0 PUSH2 0x100 EXP DUP2 SLOAD DUP2 PUSH1 0xFF MUL NOT AND SWAP1 DUP4 PUSH1 0x3 DUP2 GT ISZERO PUSH2 0x336 JUMPI PUSH2 0x335 PUSH2 0x6C8 JUMP JUMPDEST JUMPDEST MUL OR SWAP1 SSTORE POP POP JUMP JUMPDEST PUSH1 0x1 PUSH1 0x20 MSTORE DUP1 PUSH1 0x0 MSTORE PUSH1 0x40 PUSH1 0x0 KECCAK256 PUSH1 0x0 SWAP2 POP SWAP1 POP DUP1 PUSH1 0x0 ADD DUP1 SLOAD PUSH2 0x361 SWAP1 PUSH2 0x7C8 JUMP JUMPDEST DUP1 PUSH1 0x1F ADD PUSH1 0x20 DUP1 SWAP2 DIV MUL PUSH1 0x20 ADD PUSH1 0x40 MLOAD SWAP1 DUP2 ADD PUSH1 0x40 MSTORE DUP1 SWAP3 SWAP2 SWAP1 DUP2 DUP2 MSTORE PUSH1 0x20 ADD DUP3 DUP1 SLOAD PUSH2 0x38D SWAP1 PUSH2 0x7C8 JUMP JUMPDEST DUP1 ISZERO PUSH2 0x3DA JUMPI DUP1 PUSH1 0x1F LT PUSH2 0x3AF JUMPI PUSH2 0x100 DUP1 DUP4 SLOAD DIV MUL DUP4 MSTORE SWAP2 PUSH1 0x20 ADD SWAP2 PUSH2 0x3DA JUMP JUMPDEST DUP3 ADD SWAP2 SWAP1 PUSH1 0x0 MSTORE PUSH1 0x20 PUSH1 0x0 KECCAK256 SWAP1 JUMPDEST DUP2 SLOAD DUP2 MSTORE SWAP1 PUSH1 0x1 ADD SWAP1 PUSH1 0x20 ADD DUP1 DUP4 GT PUSH2 0x3BD JUMPI DUP3 SWAP1 SUB PUSH1 0x1F AND DUP3 ADD SWAP2 JUMPDEST POP POP POP POP POP SWAP1 DUP1 PUSH1 0x1 ADD PUSH1 0x0 SWAP1 SLOAD SWAP1 PUSH2 0x100 EXP SWAP1 DIV PUSH1 0xFF AND SWAP1 POP DUP3 JUMP JUMPDEST PUSH1 0x0 DUP1 SLOAD SWAP1 PUSH2 0x100 EXP SWAP1 DIV PUSH20 0xFFFFFFFFFFFFFFFFFFFFFFFFFFFFFFFFFFFFFFFF AND DUP2 JUMP JUMPDEST PUSH1 0x0 PUSH1 0x40 MLOAD SWAP1 POP SWAP1 JUMP JUMPDEST PUSH1 0x0 DUP1 REVERT JUMPDEST PUSH1 0x0 DUP1 REVERT JUMPDEST PUSH1 0x0 PUSH20 0xFFFFFFFFFFFFFFFFFFFFFFFFFFFFFFFFFFFFFFFF DUP3 AND SWAP1 POP SWAP2 SWAP1 POP JUMP JUMPDEST PUSH1 0x0 PUSH2 0x45A DUP3 PUSH2 0x42F JUMP JUMPDEST SWAP1 POP SWAP2 SWAP1 POP JUMP JUMPDEST PUSH2 0x46A DUP2 PUSH2 0x44F JUMP JUMPDEST DUP2 EQ PUSH2 0x475 JUMPI PUSH1 0x0 DUP1 REVERT JUMPDEST POP JUMP JUMPDEST PUSH1 0x0 DUP2 CALLDATALOAD SWAP1 POP PUSH2 0x487 DUP2 PUSH2 0x461 JUMP JUMPDEST SWAP3 SWAP2 POP POP JUMP JUMPDEST PUSH1 0x0 PUSH1 0x20 DUP3 DUP5 SUB SLT ISZERO PUSH2 0x4A3 JUMPI PUSH2 0x4A2 PUSH2 0x425 JUMP JUMPDEST JUMPDEST PUSH1 0x0 PUSH2 0x4B1 DUP5 DUP3 DUP6 ADD PUSH2 0x478 JUMP JUMPDEST SWAP2 POP POP SWAP3 SWAP2 POP POP JUMP JUMPDEST PUSH1 0x0 DUP1 REVERT JUMPDEST PUSH1 0x0 DUP1 REVERT JUMPDEST PUSH1 0x0 PUSH1 0x1F NOT PUSH1 0x1F DUP4 ADD AND SWAP1 POP SWAP2 SWAP1 POP JUMP JUMPDEST PUSH32 0x4E487B7100000000000000000000000000000000000000000000000000000000 PUSH1 0x0 MSTORE PUSH1 0x41 PUSH1 0x4 MSTORE PUSH1 0x24 PUSH1 0x0 REVERT JUMPDEST PUSH2 0x50D DUP3 PUSH2 0x4C4 JUMP JUMPDEST DUP2 ADD DUP2 DUP2 LT PUSH8 0xFFFFFFFFFFFFFFFF DUP3 GT OR ISZERO PUSH2 0x52C JUMPI PUSH2 0x52B PUSH2 0x4D5 JUMP JUMPDEST JUMPDEST DUP1 PUSH1 0x40 MSTORE POP POP POP JUMP JUMPDEST PUSH1 0x0 PUSH2 0x53F PUSH2 0x41B JUMP JUMPDEST SWAP1 POP PUSH2 0x54B DUP3 DUP3 PUSH2 0x504 JUMP JUMPDEST SWAP2 SWAP1 POP JUMP JUMPDEST PUSH1 0x0 PUSH8 0xFFFFFFFFFFFFFFFF DUP3 GT ISZERO PUSH2 0x56B JUMPI PUSH2 0x56A PUSH2 0x4D5 JUMP JUMPDEST JUMPDEST PUSH2 0x574 DUP3 PUSH2 0x4C4 JUMP JUMPDEST SWAP1 POP PUSH1 0x20 DUP2 ADD SWAP1 POP SWAP2 SWAP1 POP JUMP JUMPDEST DUP3 DUP2 DUP4 CALLDATACOPY PUSH1 0x0 DUP4 DUP4 ADD MSTORE POP POP POP JUMP JUMPDEST PUSH1 0x0 PUSH2 0x5A3 PUSH2 0x59E DUP5 PUSH2 0x550 JUMP JUMPDEST PUSH2 0x535 JUMP JUMPDEST SWAP1 POP DUP3 DUP2 MSTORE PUSH1 0x20 DUP2 ADD DUP5 DUP5 DUP5 ADD GT ISZERO PUSH2 0x5BF JUMPI PUSH2 0x5BE PUSH2 0x4BF JUMP JUMPDEST JUMPDEST PUSH2 0x5CA DUP5 DUP3 DUP6 PUSH2 0x581 JUMP JUMPDEST POP SWAP4 SWAP3 POP POP POP JUMP JUMPDEST PUSH1 0x0 DUP3 PUSH1 0x1F DUP4 ADD SLT PUSH2 0x5E7 JUMPI PUSH2 0x5E6 PUSH2 0x4BA JUMP JUMPDEST JUMPDEST DUP2 CALLDATALOAD PUSH2 0x5F7 DUP5 DUP3 PUSH1 0x20 DUP7 ADD PUSH2 0x590 JUMP JUMPDEST SWAP2 POP POP SWAP3 SWAP2 POP POP JUMP JUMPDEST PUSH1 0x0 PUSH1 0x20 DUP3 DUP5 SUB SLT ISZERO PUSH2 0x616 JUMPI PUSH2 0x615 PUSH2 0x425 JUMP JUMPDEST JUMPDEST PUSH1 0x0 DUP3 ADD CALLDATALOAD PUSH8 0xFFFFFFFFFFFFFFFF DUP2 GT ISZERO PUSH2 0x634 JUMPI PUSH2 0x633 PUSH2 0x42A JUMP JUMPDEST JUMPDEST PUSH2 0x640 DUP5 DUP3 DUP6 ADD PUSH2 0x5D2 JUMP JUMPDEST SWAP2 POP POP SWAP3 SWAP2 POP POP JUMP JUMPDEST PUSH1 0x0 DUP2 MLOAD SWAP1 POP SWAP2 SWAP1 POP JUMP JUMPDEST PUSH1 0x0 DUP3 DUP3 MSTORE PUSH1 0x20 DUP3 ADD SWAP1 POP SWAP3 SWAP2 POP POP JUMP JUMPDEST PUSH1 0x0 JUMPDEST DUP4 DUP2 LT ISZERO PUSH2 0x683 JUMPI DUP1 DUP3 ADD MLOAD DUP2 DUP5 ADD MSTORE PUSH1 0x20 DUP2 ADD SWAP1 POP PUSH2 0x668 JUMP JUMPDEST PUSH1 0x0 DUP5 DUP5 ADD MSTORE POP POP POP POP JUMP JUMPDEST PUSH1 0x0 PUSH2 0x69A DUP3 PUSH2 0x649 JUMP JUMPDEST PUSH2 0x6A4 DUP2 DUP6 PUSH2 0x654 JUMP JUMPDEST SWAP4 POP PUSH2 0x6B4 DUP2 DUP6 PUSH1 0x20 DUP7 ADD PUSH2 0x665 JUMP JUMPDEST PUSH2 0x6BD DUP2 PUSH2 0x4C4 JUMP JUMPDEST DUP5 ADD SWAP2 POP POP SWAP3 SWAP2 POP POP JUMP JUMPDEST PUSH32 0x4E487B7100000000000000000000000000000000000000000000000000000000 PUSH1 0x0 MSTORE PUSH1 0x21 PUSH1 0x4 MSTORE PUSH1 0x24 PUSH1 0x0 REVERT JUMPDEST PUSH1 0x4 DUP2 LT PUSH2 0x708 JUMPI PUSH2 0x707 PUSH2 0x6C8 JUMP JUMPDEST JUMPDEST POP JUMP JUMPDEST PUSH1 0x0 DUP2 SWAP1 POP PUSH2 0x719 DUP3 PUSH2 0x6F7 JUMP JUMPDEST SWAP2 SWAP1 POP JUMP JUMPDEST PUSH1 0x0 PUSH2 0x729 DUP3 PUSH2 0x70B JUMP JUMPDEST SWAP1 POP SWAP2 SWAP1 POP JUMP JUMPDEST PUSH2 0x739 DUP2 PUSH2 0x71E JUMP JUMPDEST DUP3 MSTORE POP POP JUMP JUMPDEST PUSH1 0x0 PUSH1 0x40 DUP3 ADD SWAP1 POP DUP2 DUP2 SUB PUSH1 0x0 DUP4 ADD MSTORE PUSH2 0x759 DUP2 DUP6 PUSH2 0x68F JUMP JUMPDEST SWAP1 POP PUSH2 0x768 PUSH1 0x20 DUP4 ADD DUP5 PUSH2 0x730 JUMP JUMPDEST SWAP4 SWAP3 POP POP POP JUMP JUMPDEST PUSH2 0x778 DUP2 PUSH2 0x44F JUMP JUMPDEST DUP3 MSTORE POP POP JUMP JUMPDEST PUSH1 0x0 PUSH1 0x20 DUP3 ADD SWAP1 POP PUSH2 0x793 PUSH1 0x0 DUP4 ADD DUP5 PUSH2 0x76F JUMP JUMPDEST SWAP3 SWAP2 POP POP JUMP JUMPDEST PUSH32 0x4E487B7100000000000000000000000000000000000000000000000000000000 PUSH1 0x0 MSTORE PUSH1 0x22 PUSH1 0x4 MSTORE PUSH1 0x24 PUSH1 0x0 REVERT JUMPDEST PUSH1 0x0 PUSH1 0x2 DUP3 DIV SWAP1 POP PUSH1 0x1 DUP3 AND DUP1 PUSH2 0x7E0 JUMPI PUSH1 0x7F DUP3 AND SWAP2 POP JUMPDEST PUSH1 0x20 DUP3 LT DUP2 SUB PUSH2 0x7F3 JUMPI PUSH2 0x7F2 PUSH2 0x799 JUMP JUMPDEST JUMPDEST POP SWAP2 SWAP1 POP JUMP JUMPDEST PUSH1 0x0 DUP2 SWAP1 POP DUP2 PUSH1 0x0 MSTORE PUSH1 0x20 PUSH1 0x0 KECCAK256 SWAP1 POP SWAP2 SWAP1 POP JUMP JUMPDEST PUSH1 0x0 PUSH1 0x20 PUSH1 0x1F DUP4 ADD DIV SWAP1 POP SWAP2 SWAP1 POP JUMP JUMPDEST PUSH1 0x0 DUP3 DUP3 SHL SWAP1 POP SWAP3 SWAP2 POP POP JUMP JUMPDEST PUSH1 0x0 PUSH1 0x8 DUP4 MUL PUSH2 0x85B PUSH32 0xFFFFFFFFFFFFFFFFFFFFFFFFFFFFFFFFFFFFFFFFFFFFFFFFFFFFFFFFFFFFFFFF DUP3 PUSH2 0x81E JUMP JUMPDEST PUSH2 0x865 DUP7 DUP4 PUSH2 0x81E JUMP JUMPDEST SWAP6 POP DUP1 NOT DUP5 AND SWAP4 POP DUP1 DUP7 AND DUP5 OR SWAP3 POP POP POP SWAP4 SWAP3 POP POP POP JUMP JUMPDEST PUSH1 0x0 DUP2 SWAP1 POP SWAP2 SWAP1 POP JUMP JUMPDEST PUSH1 0x0 DUP2 SWAP1 POP SWAP2 SWAP1 POP JUMP JUMPDEST PUSH1 0x0 PUSH2 0x8AC PUSH2 0x8A7 PUSH2 0x8A2 DUP5 PUSH2 0x87D JUMP JUMPDEST PUSH2 0x887 JUMP JUMPDEST PUSH2 0x87D JUMP JUMPDEST SWAP1 POP SWAP2 SWAP1 POP JUMP JUMPDEST PUSH1 0x0 DUP2 SWAP1 POP SWAP2 SWAP1 POP JUMP JUMPDEST PUSH2 0x8C6 DUP4 PUSH2 0x891 JUMP JUMPDEST PUSH2 0x8DA PUSH2 0x8D2 DUP3 PUSH2 0x8B3 JUMP JUMPDEST DUP5 DUP5 SLOAD PUSH2 0x82B JUMP JUMPDEST DUP3 SSTORE POP POP POP POP JUMP JUMPDEST PUSH1 0x0 SWAP1 JUMP JUMPDEST PUSH2 0x8EF PUSH2 0x8E2 JUMP JUMPDEST PUSH2 0x8FA DUP2 DUP5 DUP5 PUSH2 0x8BD JUMP JUMPDEST POP POP POP JUMP JUMPDEST JUMPDEST DUP2 DUP2 LT ISZERO PUSH2 0x91E JUMPI PUSH2 0x913 PUSH1 0x0 DUP3 PUSH2 0x8E7 JUMP JUMPDEST PUSH1 0x1 DUP2 ADD SWAP1 POP PUSH2 0x900 JUMP JUMPDEST POP POP JUMP JUMPDEST PUSH1 0x1F DUP3 GT ISZERO PUSH2 0x963 JUMPI PUSH2 0x934 DUP2 PUSH2 0x7F9 JUMP JUMPDEST PUSH2 0x93D DUP5 PUSH2 0x80E JUMP JUMPDEST DUP2 ADD PUSH1 0x20 DUP6 LT ISZERO PUSH2 0x94C JUMPI DUP2 SWAP1 POP JUMPDEST PUSH2 0x960 PUSH2 0x958 DUP6 PUSH2 0x80E JUMP JUMPDEST DUP4 ADD DUP3 PUSH2 0x8FF JUMP JUMPDEST POP POP JUMPDEST POP POP POP JUMP JUMPDEST PUSH1 0x0 DUP3 DUP3 SHR SWAP1 POP SWAP3 SWAP2 POP POP JUMP JUMPDEST PUSH1 0x0 PUSH2 0x986 PUSH1 0x0 NOT DUP5 PUSH1 0x8 MUL PUSH2 0x968 JUMP JUMPDEST NOT DUP1 DUP4 AND SWAP2 POP POP SWAP3 SWAP2 POP POP JUMP JUMPDEST PUSH1 0x0 PUSH2 0x99F DUP4 DUP4 PUSH2 0x975 JUMP JUMPDEST SWAP2 POP DUP3 PUSH1 0x2 MUL DUP3 OR SWAP1 POP SWAP3 SWAP2 POP POP JUMP JUMPDEST PUSH2 0x9B8 DUP3 PUSH2 0x649 JUMP JUMPDEST PUSH8 0xFFFFFFFFFFFFFFFF DUP2 GT ISZERO PUSH2 0x9D1 JUMPI PUSH2 0x9D0 PUSH2 0x4D5 JUMP JUMPDEST JUMPDEST PUSH2 0x9DB DUP3 SLOAD PUSH2 0x7C8 JUMP JUMPDEST PUSH2 0x9E6 DUP3 DUP3 DUP6 PUSH2 0x922 JUMP JUMPDEST PUSH1 0x0 PUSH1 0x20 SWAP1 POP PUSH1 0x1F DUP4 GT PUSH1 0x1 DUP2 EQ PUSH2 0xA19 JUMPI PUSH1 0x0 DUP5 ISZERO PUSH2 0xA07 JUMPI DUP3 DUP8 ADD MLOAD SWAP1 POP JUMPDEST PUSH2 0xA11 DUP6 DUP3 PUSH2 0x993 JUMP JUMPDEST DUP7 SSTORE POP PUSH2 0xA79 JUMP JUMPDEST PUSH1 0x1F NOT DUP5 AND PUSH2 0xA27 DUP7 PUSH2 0x7F9 JUMP JUMPDEST PUSH1 0x0 JUMPDEST DUP3 DUP2 LT ISZERO PUSH2 0xA4F JUMPI DUP5 DUP10 ADD MLOAD DUP3 SSTORE PUSH1 0x1 DUP3 ADD SWAP2 POP PUSH1 0x20 DUP6 ADD SWAP5 POP PUSH1 0x20 DUP2 ADD SWAP1 POP PUSH2 0xA2A JUMP JUMPDEST DUP7 DUP4 LT ISZERO PUSH2 0xA6C JUMPI DUP5 DUP10 ADD MLOAD PUSH2 0xA68 PUSH1 0x1F DUP10 AND DUP3 PUSH2 0x975 JUMP JUMPDEST DUP4 SSTORE POP JUMPDEST PUSH1 0x1 PUSH1 0x2 DUP9 MUL ADD DUP9 SSTORE POP POP POP JUMPDEST POP POP POP POP POP POP JUMP INVALID LOG2 PUSH5 0x6970667358 0x22 SLT KECCAK256 0xA5 0x21 SLT PUSH13 0x8BA5EBD361F766F1B557940A1 0xC0 0xCE OR 0x5F CALLVALUE CALLDATACOPY 0xF8 0xDB LOG1 0xA8 PUSH2 0xF5AD LOG3 DUP8 PUSH5 0x736F6C6343 STOP ADDMOD SGT STOP CALLER "
				},
				"gasEstimates": {
					"creation": {
						"codeDepositCost": "548600",
						"executionCost": "24847",
						"totalCost": "573447"
					},
					"external": {
						"KYCrecords(address)": "infinite",
						"RejectKYC(address)": "27027",
						"approveKYC(address)": "26983",
						"owner()": "2577",
						"submitKYC(string)": "infinite"
					}
				},
				"methodIdentifiers": {
					"KYCrecords(address)": "788cfb39",
					"RejectKYC(address)": "672c1cd0",
					"approveKYC(address)": "0e27324d",
					"owner()": "8da5cb5b",
					"submitKYC(string)": "453ae3cf"
				}
			},
			"storageLayout": {
				"storage": [
					{
						"astId": 3,
						"contract": "contracts/KYC.sol:kyc",
						"label": "owner",
						"offset": 0,
						"slot": "0",
						"type": "t_address"
					},
					{
						"astId": 19,
						"contract": "contracts/KYC.sol:kyc",
						"label": "KYCrecords",
						"offset": 0,
						"slot": "1",
						"type": "t_mapping(t_address,t_struct(KYCData)14_storage)"
					}
				],
				"types": {
					"t_address": {
						"encoding": "inplace",
						"label": "address",
						"numberOfBytes": "20"
					},
					"t_enum(KYCStatus)8": {
						"encoding": "inplace",
						"label": "enum kyc.KYCStatus",
						"numberOfBytes": "1"
					},
					"t_mapping(t_address,t_struct(KYCData)14_storage)": {
						"encoding": "mapping",
						"key": "t_address",
						"label": "mapping(address => struct kyc.KYCData)",
						"numberOfBytes": "32",
						"value": "t_struct(KYCData)14_storage"
					},
					"t_string_storage": {
						"encoding": "bytes",
						"label": "string",
						"numberOfBytes": "32"
					},
					"t_struct(KYCData)14_storage": {
						"encoding": "inplace",
						"label": "struct kyc.KYCData",
						"members": [
							{
								"astId": 10,
								"contract": "contracts/KYC.sol:kyc",
								"label": "name",
								"offset": 0,
								"slot": "0",
								"type": "t_string_storage"
							},
							{
								"astId": 13,
								"contract": "contracts/KYC.sol:kyc",
								"label": "status",
								"offset": 0,
								"slot": "1",
								"type": "t_enum(KYCStatus)8"
							}
						],
						"numberOfBytes": "64"
					}
				}
			},
			"userdoc": {
				"kind": "user",
				"methods": {},
				"version": 1
			}
		}
	}
}